{
  "_format": "hh-sol-artifact-1",
  "contractName": "MarketPlaceNFT",
  "sourceName": "contracts/MarketPlaceNFT.sol",
  "abi": [
    {
      "inputs": [],
      "stateMutability": "nonpayable",
      "type": "constructor"
    },
    {
      "inputs": [],
      "name": "ERC721EnumerableForbiddenBatchMint",
      "type": "error"
    },
    {
      "inputs": [
        {
          "internalType": "address",
          "name": "sender",
          "type": "address"
        },
        {
          "internalType": "uint256",
          "name": "tokenId",
          "type": "uint256"
        },
        {
          "internalType": "address",
          "name": "owner",
          "type": "address"
        }
      ],
      "name": "ERC721IncorrectOwner",
      "type": "error"
    },
    {
      "inputs": [
        {
          "internalType": "address",
          "name": "operator",
          "type": "address"
        },
        {
          "internalType": "uint256",
          "name": "tokenId",
          "type": "uint256"
        }
      ],
      "name": "ERC721InsufficientApproval",
      "type": "error"
    },
    {
      "inputs": [
        {
          "internalType": "address",
          "name": "approver",
          "type": "address"
        }
      ],
      "name": "ERC721InvalidApprover",
      "type": "error"
    },
    {
      "inputs": [
        {
          "internalType": "address",
          "name": "operator",
          "type": "address"
        }
      ],
      "name": "ERC721InvalidOperator",
      "type": "error"
    },
    {
      "inputs": [
        {
          "internalType": "address",
          "name": "owner",
          "type": "address"
        }
      ],
      "name": "ERC721InvalidOwner",
      "type": "error"
    },
    {
      "inputs": [
        {
          "internalType": "address",
          "name": "receiver",
          "type": "address"
        }
      ],
      "name": "ERC721InvalidReceiver",
      "type": "error"
    },
    {
      "inputs": [
        {
          "internalType": "address",
          "name": "sender",
          "type": "address"
        }
      ],
      "name": "ERC721InvalidSender",
      "type": "error"
    },
    {
      "inputs": [
        {
          "internalType": "uint256",
          "name": "tokenId",
          "type": "uint256"
        }
      ],
      "name": "ERC721NonexistentToken",
      "type": "error"
    },
    {
      "inputs": [
        {
          "internalType": "address",
          "name": "owner",
          "type": "address"
        },
        {
          "internalType": "uint256",
          "name": "index",
          "type": "uint256"
        }
      ],
      "name": "ERC721OutOfBoundsIndex",
      "type": "error"
    },
    {
      "inputs": [
        {
          "internalType": "address",
          "name": "owner",
          "type": "address"
        }
      ],
      "name": "OwnableInvalidOwner",
      "type": "error"
    },
    {
      "inputs": [
        {
          "internalType": "address",
          "name": "account",
          "type": "address"
        }
      ],
      "name": "OwnableUnauthorizedAccount",
      "type": "error"
    },
    {
      "anonymous": false,
      "inputs": [
        {
          "indexed": true,
          "internalType": "address",
          "name": "owner",
          "type": "address"
        },
        {
          "indexed": true,
          "internalType": "address",
          "name": "approved",
          "type": "address"
        },
        {
          "indexed": true,
          "internalType": "uint256",
          "name": "tokenId",
          "type": "uint256"
        }
      ],
      "name": "Approval",
      "type": "event"
    },
    {
      "anonymous": false,
      "inputs": [
        {
          "indexed": true,
          "internalType": "address",
          "name": "owner",
          "type": "address"
        },
        {
          "indexed": true,
          "internalType": "address",
          "name": "operator",
          "type": "address"
        },
        {
          "indexed": false,
          "internalType": "bool",
          "name": "approved",
          "type": "bool"
        }
      ],
      "name": "ApprovalForAll",
      "type": "event"
    },
    {
      "anonymous": false,
      "inputs": [
        {
          "indexed": false,
          "internalType": "uint256",
          "name": "_fromTokenId",
          "type": "uint256"
        },
        {
          "indexed": false,
          "internalType": "uint256",
          "name": "_toTokenId",
          "type": "uint256"
        }
      ],
      "name": "BatchMetadataUpdate",
      "type": "event"
    },
    {
      "anonymous": false,
      "inputs": [
        {
          "indexed": false,
          "internalType": "uint256",
          "name": "_tokenId",
          "type": "uint256"
        }
      ],
      "name": "MetadataUpdate",
      "type": "event"
    },
    {
      "anonymous": false,
      "inputs": [
        {
          "indexed": true,
          "internalType": "uint256",
          "name": "tokenId",
          "type": "uint256"
        },
        {
          "indexed": true,
          "internalType": "address",
          "name": "owner",
          "type": "address"
        },
        {
          "indexed": false,
          "internalType": "string",
          "name": "tokenURI",
          "type": "string"
        },
        {
          "indexed": false,
          "internalType": "string",
          "name": "mediaType",
          "type": "string"
        }
      ],
      "name": "NftMinted",
      "type": "event"
    },
    {
      "anonymous": false,
      "inputs": [
        {
          "indexed": true,
          "internalType": "address",
          "name": "previousOwner",
          "type": "address"
        },
        {
          "indexed": true,
          "internalType": "address",
          "name": "newOwner",
          "type": "address"
        }
      ],
      "name": "OwnershipTransferred",
      "type": "event"
    },
    {
      "anonymous": false,
      "inputs": [
        {
          "indexed": true,
          "internalType": "address",
          "name": "from",
          "type": "address"
        },
        {
          "indexed": true,
          "internalType": "address",
          "name": "to",
          "type": "address"
        },
        {
          "indexed": true,
          "internalType": "uint256",
          "name": "tokenId",
          "type": "uint256"
        }
      ],
      "name": "Transfer",
      "type": "event"
    },
    {
      "inputs": [
        {
          "internalType": "address",
          "name": "to",
          "type": "address"
        },
        {
          "internalType": "uint256",
          "name": "tokenId",
          "type": "uint256"
        }
      ],
      "name": "approve",
      "outputs": [],
      "stateMutability": "nonpayable",
      "type": "function"
    },
    {
      "inputs": [
        {
          "internalType": "address",
          "name": "owner",
          "type": "address"
        }
      ],
      "name": "balanceOf",
      "outputs": [
        {
          "internalType": "uint256",
          "name": "",
          "type": "uint256"
        }
      ],
      "stateMutability": "view",
      "type": "function"
    },
    {
      "inputs": [
        {
          "internalType": "string",
          "name": "_tokenURI",
          "type": "string"
        },
        {
          "internalType": "string",
          "name": "mediaType",
          "type": "string"
        }
      ],
      "name": "createToken",
      "outputs": [
        {
          "internalType": "uint256",
          "name": "",
          "type": "uint256"
        }
      ],
      "stateMutability": "nonpayable",
      "type": "function"
    },
    {
      "inputs": [
        {
          "internalType": "uint256",
          "name": "tokenId",
          "type": "uint256"
        }
      ],
      "name": "getApproved",
      "outputs": [
        {
          "internalType": "address",
          "name": "",
          "type": "address"
        }
      ],
      "stateMutability": "view",
      "type": "function"
    },
    {
      "inputs": [
        {
          "internalType": "address",
          "name": "owner",
          "type": "address"
        },
        {
          "internalType": "address",
          "name": "operator",
          "type": "address"
        }
      ],
      "name": "isApprovedForAll",
      "outputs": [
        {
          "internalType": "bool",
          "name": "",
          "type": "bool"
        }
      ],
      "stateMutability": "view",
      "type": "function"
    },
    {
      "inputs": [],
      "name": "name",
      "outputs": [
        {
          "internalType": "string",
          "name": "",
          "type": "string"
        }
      ],
      "stateMutability": "view",
      "type": "function"
    },
    {
      "inputs": [],
      "name": "owner",
      "outputs": [
        {
          "internalType": "address",
          "name": "",
          "type": "address"
        }
      ],
      "stateMutability": "view",
      "type": "function"
    },
    {
      "inputs": [
        {
          "internalType": "uint256",
          "name": "tokenId",
          "type": "uint256"
        }
      ],
      "name": "ownerOf",
      "outputs": [
        {
          "internalType": "address",
          "name": "",
          "type": "address"
        }
      ],
      "stateMutability": "view",
      "type": "function"
    },
    {
      "inputs": [],
      "name": "renounceOwnership",
      "outputs": [],
      "stateMutability": "nonpayable",
      "type": "function"
    },
    {
      "inputs": [
        {
          "internalType": "address",
          "name": "from",
          "type": "address"
        },
        {
          "internalType": "address",
          "name": "to",
          "type": "address"
        },
        {
          "internalType": "uint256",
          "name": "tokenId",
          "type": "uint256"
        }
      ],
      "name": "safeTransferFrom",
      "outputs": [],
      "stateMutability": "nonpayable",
      "type": "function"
    },
    {
      "inputs": [
        {
          "internalType": "address",
          "name": "from",
          "type": "address"
        },
        {
          "internalType": "address",
          "name": "to",
          "type": "address"
        },
        {
          "internalType": "uint256",
          "name": "tokenId",
          "type": "uint256"
        },
        {
          "internalType": "bytes",
          "name": "data",
          "type": "bytes"
        }
      ],
      "name": "safeTransferFrom",
      "outputs": [],
      "stateMutability": "nonpayable",
      "type": "function"
    },
    {
      "inputs": [
        {
          "internalType": "address",
          "name": "operator",
          "type": "address"
        },
        {
          "internalType": "bool",
          "name": "approved",
          "type": "bool"
        }
      ],
      "name": "setApprovalForAll",
      "outputs": [],
      "stateMutability": "nonpayable",
      "type": "function"
    },
    {
      "inputs": [
        {
          "internalType": "bytes4",
          "name": "interfaceId",
          "type": "bytes4"
        }
      ],
      "name": "supportsInterface",
      "outputs": [
        {
          "internalType": "bool",
          "name": "",
          "type": "bool"
        }
      ],
      "stateMutability": "view",
      "type": "function"
    },
    {
      "inputs": [],
      "name": "symbol",
      "outputs": [
        {
          "internalType": "string",
          "name": "",
          "type": "string"
        }
      ],
      "stateMutability": "view",
      "type": "function"
    },
    {
      "inputs": [
        {
          "internalType": "uint256",
          "name": "index",
          "type": "uint256"
        }
      ],
      "name": "tokenByIndex",
      "outputs": [
        {
          "internalType": "uint256",
          "name": "",
          "type": "uint256"
        }
      ],
      "stateMutability": "view",
      "type": "function"
    },
    {
      "inputs": [
        {
          "internalType": "address",
          "name": "owner",
          "type": "address"
        },
        {
          "internalType": "uint256",
          "name": "index",
          "type": "uint256"
        }
      ],
      "name": "tokenOfOwnerByIndex",
      "outputs": [
        {
          "internalType": "uint256",
          "name": "",
          "type": "uint256"
        }
      ],
      "stateMutability": "view",
      "type": "function"
    },
    {
      "inputs": [
        {
          "internalType": "uint256",
          "name": "tokenId",
          "type": "uint256"
        }
      ],
      "name": "tokenURI",
      "outputs": [
        {
          "internalType": "string",
          "name": "",
          "type": "string"
        }
      ],
      "stateMutability": "view",
      "type": "function"
    },
    {
      "inputs": [],
      "name": "totalSupply",
      "outputs": [
        {
          "internalType": "uint256",
          "name": "",
          "type": "uint256"
        }
      ],
      "stateMutability": "view",
      "type": "function"
    },
    {
      "inputs": [
        {
          "internalType": "address",
          "name": "from",
          "type": "address"
        },
        {
          "internalType": "address",
          "name": "to",
          "type": "address"
        },
        {
          "internalType": "uint256",
          "name": "tokenId",
          "type": "uint256"
        }
      ],
      "name": "transferFrom",
      "outputs": [],
      "stateMutability": "nonpayable",
      "type": "function"
    },
    {
      "inputs": [
        {
          "internalType": "address",
          "name": "newOwner",
          "type": "address"
        }
      ],
      "name": "transferOwnership",
      "outputs": [],
      "stateMutability": "nonpayable",
      "type": "function"
    }
  ],
  "bytecode": "0x608060405234801561001057600080fd5b50336040518060400160405280600f81526020016e1ba7a7239021a7a62622a1aa24a7a760891b81525060405180604001604052806004815260200163374f4e4760e01b815250816000908161006691906101a4565b50600161007382826101a4565b5050506001600160a01b0381166100a457604051631e4fbdf760e01b81526000600482015260240160405180910390fd5b6100ad816100b3565b50610262565b600b80546001600160a01b038381166001600160a01b0319831681179093556040519116919082907f8be0079c531659141344cd1fd0a4f28419497f9722a3daafe3b4186f6b6457e090600090a35050565b634e487b7160e01b600052604160045260246000fd5b600181811c9082168061012f57607f821691505b60208210810361014f57634e487b7160e01b600052602260045260246000fd5b50919050565b601f82111561019f57806000526020600020601f840160051c8101602085101561017c5750805b601f840160051c820191505b8181101561019c5760008155600101610188565b50505b505050565b81516001600160401b038111156101bd576101bd610105565b6101d1816101cb845461011b565b84610155565b6020601f82116001811461020557600083156101ed5750848201515b600019600385901b1c1916600184901b17845561019c565b600084815260208120601f198516915b828110156102355787850151825560209485019460019092019101610215565b50848210156102535786840151600019600387901b60f8161c191681555b50505050600190811b01905550565b611879806102716000396000f3fe608060405234801561001057600080fd5b506004361061012c5760003560e01c80636352211e116100ad578063a22cb46511610071578063a22cb46514610266578063b88d4fde14610279578063c87b56dd1461028c578063e985e9c51461029f578063f2fde38b146102b257600080fd5b80636352211e1461021f57806370a0823114610232578063715018a6146102455780638da5cb5b1461024d57806395d89b411461025e57600080fd5b806323b872dd116100f457806323b872dd146101c05780632f2f2d56146101d35780632f745c59146101e657806342842e0e146101f95780634f6ccce71461020c57600080fd5b806301ffc9a71461013157806306fdde0314610159578063081812fc1461016e578063095ea7b31461019957806318160ddd146101ae575b600080fd5b61014461013f3660046112a3565b6102c5565b60405190151581526020015b60405180910390f35b6101616102d6565b6040516101509190611310565b61018161017c366004611323565b610368565b6040516001600160a01b039091168152602001610150565b6101ac6101a7366004611358565b610391565b005b6009545b604051908152602001610150565b6101ac6101ce366004611382565b6103a0565b6101b26101e136600461146f565b610430565b6101b26101f4366004611358565b6104b0565b6101ac610207366004611382565b610515565b6101b261021a366004611323565b610535565b61018161022d366004611323565b61058e565b6101b26102403660046114d8565b610599565b6101ac6105e1565b600b546001600160a01b0316610181565b6101616105f5565b6101ac6102743660046114f3565b610604565b6101ac61028736600461152f565b61060f565b61016161029a366004611323565b610627565b6101446102ad3660046115ab565b610632565b6101ac6102c03660046114d8565b610660565b60006102d08261069e565b92915050565b6060600080546102e5906115de565b80601f0160208091040260200160405190810160405280929190818152602001828054610311906115de565b801561035e5780601f106103335761010080835404028352916020019161035e565b820191906000526020600020905b81548152906001019060200180831161034157829003601f168201915b5050505050905090565b6000610373826106c3565b506000828152600460205260409020546001600160a01b03166102d0565b61039c8282336106fc565b5050565b6001600160a01b0382166103cf57604051633250574960e11b8152600060048201526024015b60405180910390fd5b60006103dc838333610709565b9050836001600160a01b0316816001600160a01b03161461042a576040516364283d7b60e01b81526001600160a01b03808616600483015260248201849052821660448201526064016103c6565b50505050565b600061043a61071e565b600c80546000918261044b8361162e565b91905055905061045b338261074b565b61046581856107b0565b336001600160a01b0316817f1d368960071e3d37d371cfcc833a857e9bcc111a607d33bfec8c7cf61366841d86866040516104a1929190611647565b60405180910390a39392505050565b60006104bb83610599565b82106104ec5760405163295f44f760e21b81526001600160a01b0384166004820152602481018390526044016103c6565b506001600160a01b03919091166000908152600760209081526040808320938352929052205490565b6105308383836040518060200160405280600081525061060f565b505050565b600061054060095490565b82106105695760405163295f44f760e21b815260006004820152602481018390526044016103c6565b6009828154811061057c5761057c611675565b90600052602060002001549050919050565b60006102d0826106c3565b60006001600160a01b0382166105c5576040516322718ad960e21b8152600060048201526024016103c6565b506001600160a01b031660009081526003602052604090205490565b6105e961071e565b6105f36000610800565b565b6060600180546102e5906115de565b61039c338383610852565b61061a8484846103a0565b61042a33858585856108f1565b60606102d082610a1c565b6001600160a01b03918216600090815260056020908152604080832093909416825291909152205460ff1690565b61066861071e565b6001600160a01b03811661069257604051631e4fbdf760e01b8152600060048201526024016103c6565b61069b81610800565b50565b60006001600160e01b0319821663780e9d6360e01b14806102d057506102d082610b25565b6000818152600260205260408120546001600160a01b0316806102d057604051637e27328960e01b8152600481018490526024016103c6565b6105308383836001610b4a565b6000610716848484610c50565b949350505050565b600b546001600160a01b031633146105f35760405163118cdaa760e01b81523360048201526024016103c6565b6001600160a01b03821661077557604051633250574960e11b8152600060048201526024016103c6565b600061078383836000610709565b90506001600160a01b03811615610530576040516339e3563760e11b8152600060048201526024016103c6565b60008281526006602052604090206107c882826116d2565b506040518281527ff8e1a15aba9398e019f0b49df1a4fde98ee17ae345cb5f6b5e2c27f5033e8ce79060200160405180910390a15050565b600b80546001600160a01b038381166001600160a01b0319831681179093556040519116919082907f8be0079c531659141344cd1fd0a4f28419497f9722a3daafe3b4186f6b6457e090600090a35050565b6001600160a01b03821661088457604051630b61174360e31b81526001600160a01b03831660048201526024016103c6565b6001600160a01b03838116600081815260056020908152604080832094871680845294825291829020805460ff191686151590811790915591519182527f17307eab39ab6107e8899845ad3d59bd9653f200f220920489ca2b5937696c31910160405180910390a3505050565b6001600160a01b0383163b15610a1557604051630a85bd0160e11b81526001600160a01b0384169063150b7a0290610933908890889087908790600401611791565b6020604051808303816000875af192505050801561096e575060408051601f3d908101601f1916820190925261096b918101906117ce565b60015b6109d7573d80801561099c576040519150601f19603f3d011682016040523d82523d6000602084013e6109a1565b606091505b5080516000036109cf57604051633250574960e11b81526001600160a01b03851660048201526024016103c6565b805160208201fd5b6001600160e01b03198116630a85bd0160e11b14610a1357604051633250574960e11b81526001600160a01b03851660048201526024016103c6565b505b5050505050565b6060610a27826106c3565b5060008281526006602052604081208054610a41906115de565b80601f0160208091040260200160405190810160405280929190818152602001828054610a6d906115de565b8015610aba5780601f10610a8f57610100808354040283529160200191610aba565b820191906000526020600020905b815481529060010190602001808311610a9d57829003601f168201915b505050505090506000610ad860408051602081019091526000815290565b90508051600003610aea575092915050565b815115610b1c578082604051602001610b049291906117eb565b60405160208183030381529060405292505050919050565b61071684610d1d565b60006001600160e01b03198216632483248360e11b14806102d057506102d082610d92565b8080610b5e57506001600160a01b03821615155b15610c20576000610b6e846106c3565b90506001600160a01b03831615801590610b9a5750826001600160a01b0316816001600160a01b031614155b8015610bad5750610bab8184610632565b155b15610bd65760405163a9fbf51f60e01b81526001600160a01b03841660048201526024016103c6565b8115610c1e5783856001600160a01b0316826001600160a01b03167f8c5be1e5ebec7d5bd14f71427d1e84f3dd0314c0f7b2291e5b200ac8c7c3b92560405160405180910390a45b505b5050600090815260046020526040902080546001600160a01b0319166001600160a01b0392909216919091179055565b600080610c5e858585610de2565b90506001600160a01b038116610cbb57610cb684600980546000838152600a60205260408120829055600182018355919091527f6e1540171b6c0c960b71a7020d9f60077f6af931a8bbf590da0223dacf75c7af0155565b610cde565b846001600160a01b0316816001600160a01b031614610cde57610cde8185610edb565b6001600160a01b038516610cfa57610cf584610f5c565b610716565b846001600160a01b0316816001600160a01b03161461071657610716858561100b565b6060610d28826106c3565b506000610d4060408051602081019091526000815290565b90506000815111610d605760405180602001604052806000815250610d8b565b80610d6a8461105b565b604051602001610d7b9291906117eb565b6040516020818303038152906040525b9392505050565b60006001600160e01b031982166380ac58cd60e01b1480610dc357506001600160e01b03198216635b5e139f60e01b145b806102d057506301ffc9a760e01b6001600160e01b03198316146102d0565b6000828152600260205260408120546001600160a01b0390811690831615610e0f57610e0f8184866110ee565b6001600160a01b03811615610e4d57610e2c600085600080610b4a565b6001600160a01b038116600090815260036020526040902080546000190190555b6001600160a01b03851615610e7c576001600160a01b0385166000908152600360205260409020805460010190555b60008481526002602052604080822080546001600160a01b0319166001600160a01b0389811691821790925591518793918516917fddf252ad1be2c89b69c2b068fc378daa952ba7f163c4a11628f55a4df523b3ef91a4949350505050565b6000610ee683610599565b6000838152600860209081526040808320546001600160a01b0388168452600790925290912091925090818314610f3d57600083815260208281526040808320548584528184208190558352600890915290208290555b6000938452600860209081526040808620869055938552525081205550565b600954600090610f6e9060019061181a565b6000838152600a602052604081205460098054939450909284908110610f9657610f96611675565b906000526020600020015490508060098381548110610fb757610fb7611675565b6000918252602080832090910192909255828152600a90915260408082208490558582528120556009805480610fef57610fef61182d565b6001900381819060005260206000200160009055905550505050565b6000600161101884610599565b611022919061181a565b6001600160a01b039093166000908152600760209081526040808320868452825280832085905593825260089052919091209190915550565b6060600061106883611152565b600101905060008167ffffffffffffffff811115611088576110886113bf565b6040519080825280601f01601f1916602001820160405280156110b2576020820181803683370190505b5090508181016020015b600019016f181899199a1a9b1b9c1cb0b131b232b360811b600a86061a8153600a85049450846110bc57509392505050565b6110f983838361122a565b610530576001600160a01b03831661112757604051637e27328960e01b8152600481018290526024016103c6565b60405163177e802f60e01b81526001600160a01b0383166004820152602481018290526044016103c6565b60008072184f03e93ff9f4daa797ed6e38ed64bf6a1f0160401b83106111915772184f03e93ff9f4daa797ed6e38ed64bf6a1f0160401b830492506040015b6d04ee2d6d415b85acef810000000083106111bd576d04ee2d6d415b85acef8100000000830492506020015b662386f26fc1000083106111db57662386f26fc10000830492506010015b6305f5e10083106111f3576305f5e100830492506008015b612710831061120757612710830492506004015b60648310611219576064830492506002015b600a83106102d05760010192915050565b60006001600160a01b038316158015906107165750826001600160a01b0316846001600160a01b0316148061126457506112648484610632565b806107165750506000908152600460205260409020546001600160a01b03908116911614919050565b6001600160e01b03198116811461069b57600080fd5b6000602082840312156112b557600080fd5b8135610d8b8161128d565b60005b838110156112db5781810151838201526020016112c3565b50506000910152565b600081518084526112fc8160208601602086016112c0565b601f01601f19169290920160200192915050565b602081526000610d8b60208301846112e4565b60006020828403121561133557600080fd5b5035919050565b80356001600160a01b038116811461135357600080fd5b919050565b6000806040838503121561136b57600080fd5b6113748361133c565b946020939093013593505050565b60008060006060848603121561139757600080fd5b6113a08461133c565b92506113ae6020850161133c565b929592945050506040919091013590565b634e487b7160e01b600052604160045260246000fd5b60008067ffffffffffffffff8411156113f0576113f06113bf565b50604051601f19601f85018116603f0116810181811067ffffffffffffffff8211171561141f5761141f6113bf565b60405283815290508082840185101561143757600080fd5b83836020830137600060208583010152509392505050565b600082601f83011261146057600080fd5b610d8b838335602085016113d5565b6000806040838503121561148257600080fd5b823567ffffffffffffffff81111561149957600080fd5b6114a58582860161144f565b925050602083013567ffffffffffffffff8111156114c257600080fd5b6114ce8582860161144f565b9150509250929050565b6000602082840312156114ea57600080fd5b610d8b8261133c565b6000806040838503121561150657600080fd5b61150f8361133c565b91506020830135801515811461152457600080fd5b809150509250929050565b6000806000806080858703121561154557600080fd5b61154e8561133c565b935061155c6020860161133c565b925060408501359150606085013567ffffffffffffffff81111561157f57600080fd5b8501601f8101871361159057600080fd5b61159f878235602084016113d5565b91505092959194509250565b600080604083850312156115be57600080fd5b6115c78361133c565b91506115d56020840161133c565b90509250929050565b600181811c908216806115f257607f821691505b60208210810361161257634e487b7160e01b600052602260045260246000fd5b50919050565b634e487b7160e01b600052601160045260246000fd5b60006001820161164057611640611618565b5060010190565b60408152600061165a60408301856112e4565b828103602084015261166c81856112e4565b95945050505050565b634e487b7160e01b600052603260045260246000fd5b601f82111561053057806000526020600020601f840160051c810160208510156116b25750805b601f840160051c820191505b81811015610a1557600081556001016116be565b815167ffffffffffffffff8111156116ec576116ec6113bf565b611700816116fa84546115de565b8461168b565b6020601f821160018114611734576000831561171c5750848201515b600019600385901b1c1916600184901b178455610a15565b600084815260208120601f198516915b828110156117645787850151825560209485019460019092019101611744565b50848210156117825786840151600019600387901b60f8161c191681555b50505050600190811b01905550565b6001600160a01b03858116825284166020820152604081018390526080606082018190526000906117c4908301846112e4565b9695505050505050565b6000602082840312156117e057600080fd5b8151610d8b8161128d565b600083516117fd8184602088016112c0565b8351908301906118118183602088016112c0565b01949350505050565b818103818111156102d0576102d0611618565b634e487b7160e01b600052603160045260246000fdfea264697066735822122085e0197d192fd284713204387f8b70fcbf06091cc31e766dc638c517cee4262b64736f6c634300081c0033",
  "linkReferences": {},
  "deployedLinkReferences": {}
}