{
  "_format": "hh-sol-artifact-1",
  "contractName": "MarketPlaceNFT",
  "sourceName": "contracts/MarketPlaceNFT.sol",
  "abi": [
    {
      "inputs": [],
      "stateMutability": "nonpayable",
      "type": "constructor"
    },
    {
      "inputs": [],
      "name": "ERC721EnumerableForbiddenBatchMint",
      "type": "error"
    },
    {
      "inputs": [
        {
          "internalType": "address",
          "name": "sender",
          "type": "address"
        },
        {
          "internalType": "uint256",
          "name": "tokenId",
          "type": "uint256"
        },
        {
          "internalType": "address",
          "name": "owner",
          "type": "address"
        }
      ],
      "name": "ERC721IncorrectOwner",
      "type": "error"
    },
    {
      "inputs": [
        {
          "internalType": "address",
          "name": "operator",
          "type": "address"
        },
        {
          "internalType": "uint256",
          "name": "tokenId",
          "type": "uint256"
        }
      ],
      "name": "ERC721InsufficientApproval",
      "type": "error"
    },
    {
      "inputs": [
        {
          "internalType": "address",
          "name": "approver",
          "type": "address"
        }
      ],
      "name": "ERC721InvalidApprover",
      "type": "error"
    },
    {
      "inputs": [
        {
          "internalType": "address",
          "name": "operator",
          "type": "address"
        }
      ],
      "name": "ERC721InvalidOperator",
      "type": "error"
    },
    {
      "inputs": [
        {
          "internalType": "address",
          "name": "owner",
          "type": "address"
        }
      ],
      "name": "ERC721InvalidOwner",
      "type": "error"
    },
    {
      "inputs": [
        {
          "internalType": "address",
          "name": "receiver",
          "type": "address"
        }
      ],
      "name": "ERC721InvalidReceiver",
      "type": "error"
    },
    {
      "inputs": [
        {
          "internalType": "address",
          "name": "sender",
          "type": "address"
        }
      ],
      "name": "ERC721InvalidSender",
      "type": "error"
    },
    {
      "inputs": [
        {
          "internalType": "uint256",
          "name": "tokenId",
          "type": "uint256"
        }
      ],
      "name": "ERC721NonexistentToken",
      "type": "error"
    },
    {
      "inputs": [
        {
          "internalType": "address",
          "name": "owner",
          "type": "address"
        },
        {
          "internalType": "uint256",
          "name": "index",
          "type": "uint256"
        }
      ],
      "name": "ERC721OutOfBoundsIndex",
      "type": "error"
    },
    {
      "inputs": [
        {
          "internalType": "address",
          "name": "owner",
          "type": "address"
        }
      ],
      "name": "OwnableInvalidOwner",
      "type": "error"
    },
    {
      "inputs": [
        {
          "internalType": "address",
          "name": "account",
          "type": "address"
        }
      ],
      "name": "OwnableUnauthorizedAccount",
      "type": "error"
    },
    {
      "anonymous": false,
      "inputs": [
        {
          "indexed": true,
          "internalType": "address",
          "name": "owner",
          "type": "address"
        },
        {
          "indexed": true,
          "internalType": "address",
          "name": "approved",
          "type": "address"
        },
        {
          "indexed": true,
          "internalType": "uint256",
          "name": "tokenId",
          "type": "uint256"
        }
      ],
      "name": "Approval",
      "type": "event"
    },
    {
      "anonymous": false,
      "inputs": [
        {
          "indexed": true,
          "internalType": "address",
          "name": "owner",
          "type": "address"
        },
        {
          "indexed": true,
          "internalType": "address",
          "name": "operator",
          "type": "address"
        },
        {
          "indexed": false,
          "internalType": "bool",
          "name": "approved",
          "type": "bool"
        }
      ],
      "name": "ApprovalForAll",
      "type": "event"
    },
    {
      "anonymous": false,
      "inputs": [
        {
          "indexed": false,
          "internalType": "uint256",
          "name": "_fromTokenId",
          "type": "uint256"
        },
        {
          "indexed": false,
          "internalType": "uint256",
          "name": "_toTokenId",
          "type": "uint256"
        }
      ],
      "name": "BatchMetadataUpdate",
      "type": "event"
    },
    {
      "anonymous": false,
      "inputs": [
        {
          "indexed": false,
          "internalType": "uint256",
          "name": "_tokenId",
          "type": "uint256"
        }
      ],
      "name": "MetadataUpdate",
      "type": "event"
    },
    {
      "anonymous": false,
      "inputs": [
        {
          "indexed": true,
          "internalType": "uint256",
          "name": "tokenId",
          "type": "uint256"
        },
        {
          "indexed": true,
          "internalType": "address",
          "name": "owner",
          "type": "address"
        },
        {
          "indexed": false,
          "internalType": "string",
          "name": "tokenURI",
          "type": "string"
        },
        {
          "indexed": false,
          "internalType": "string",
          "name": "mediaType",
          "type": "string"
        }
      ],
      "name": "NftMinted",
      "type": "event"
    },
    {
      "anonymous": false,
      "inputs": [
        {
          "indexed": true,
          "internalType": "address",
          "name": "previousOwner",
          "type": "address"
        },
        {
          "indexed": true,
          "internalType": "address",
          "name": "newOwner",
          "type": "address"
        }
      ],
      "name": "OwnershipTransferred",
      "type": "event"
    },
    {
      "anonymous": false,
      "inputs": [
        {
          "indexed": true,
          "internalType": "address",
          "name": "from",
          "type": "address"
        },
        {
          "indexed": true,
          "internalType": "address",
          "name": "to",
          "type": "address"
        },
        {
          "indexed": true,
          "internalType": "uint256",
          "name": "tokenId",
          "type": "uint256"
        }
      ],
      "name": "Transfer",
      "type": "event"
    },
    {
      "inputs": [
        {
          "internalType": "address",
          "name": "to",
          "type": "address"
        },
        {
          "internalType": "uint256",
          "name": "tokenId",
          "type": "uint256"
        }
      ],
      "name": "approve",
      "outputs": [],
      "stateMutability": "nonpayable",
      "type": "function"
    },
    {
      "inputs": [
        {
          "internalType": "address",
          "name": "owner",
          "type": "address"
        }
      ],
      "name": "balanceOf",
      "outputs": [
        {
          "internalType": "uint256",
          "name": "",
          "type": "uint256"
        }
      ],
      "stateMutability": "view",
      "type": "function"
    },
    {
      "inputs": [
        {
          "internalType": "string",
          "name": "_tokenURI",
          "type": "string"
        },
        {
          "internalType": "string",
          "name": "mediaType",
          "type": "string"
        }
      ],
      "name": "createToken",
      "outputs": [
        {
          "internalType": "uint256",
          "name": "",
          "type": "uint256"
        }
      ],
      "stateMutability": "nonpayable",
      "type": "function"
    },
    {
      "inputs": [
        {
          "internalType": "uint256",
          "name": "tokenId",
          "type": "uint256"
        }
      ],
      "name": "getApproved",
      "outputs": [
        {
          "internalType": "address",
          "name": "",
          "type": "address"
        }
      ],
      "stateMutability": "view",
      "type": "function"
    },
    {
      "inputs": [
        {
          "internalType": "address",
          "name": "owner",
          "type": "address"
        },
        {
          "internalType": "address",
          "name": "operator",
          "type": "address"
        }
      ],
      "name": "isApprovedForAll",
      "outputs": [
        {
          "internalType": "bool",
          "name": "",
          "type": "bool"
        }
      ],
      "stateMutability": "view",
      "type": "function"
    },
    {
      "inputs": [],
      "name": "name",
      "outputs": [
        {
          "internalType": "string",
          "name": "",
          "type": "string"
        }
      ],
      "stateMutability": "view",
      "type": "function"
    },
    {
      "inputs": [],
      "name": "owner",
      "outputs": [
        {
          "internalType": "address",
          "name": "",
          "type": "address"
        }
      ],
      "stateMutability": "view",
      "type": "function"
    },
    {
      "inputs": [
        {
          "internalType": "uint256",
          "name": "tokenId",
          "type": "uint256"
        }
      ],
      "name": "ownerOf",
      "outputs": [
        {
          "internalType": "address",
          "name": "",
          "type": "address"
        }
      ],
      "stateMutability": "view",
      "type": "function"
    },
    {
      "inputs": [],
      "name": "renounceOwnership",
      "outputs": [],
      "stateMutability": "nonpayable",
      "type": "function"
    },
    {
      "inputs": [
        {
          "internalType": "address",
          "name": "from",
          "type": "address"
        },
        {
          "internalType": "address",
          "name": "to",
          "type": "address"
        },
        {
          "internalType": "uint256",
          "name": "tokenId",
          "type": "uint256"
        }
      ],
      "name": "safeTransferFrom",
      "outputs": [],
      "stateMutability": "nonpayable",
      "type": "function"
    },
    {
      "inputs": [
        {
          "internalType": "address",
          "name": "from",
          "type": "address"
        },
        {
          "internalType": "address",
          "name": "to",
          "type": "address"
        },
        {
          "internalType": "uint256",
          "name": "tokenId",
          "type": "uint256"
        },
        {
          "internalType": "bytes",
          "name": "data",
          "type": "bytes"
        }
      ],
      "name": "safeTransferFrom",
      "outputs": [],
      "stateMutability": "nonpayable",
      "type": "function"
    },
    {
      "inputs": [
        {
          "internalType": "address",
          "name": "operator",
          "type": "address"
        },
        {
          "internalType": "bool",
          "name": "approved",
          "type": "bool"
        }
      ],
      "name": "setApprovalForAll",
      "outputs": [],
      "stateMutability": "nonpayable",
      "type": "function"
    },
    {
      "inputs": [
        {
          "internalType": "bytes4",
          "name": "interfaceId",
          "type": "bytes4"
        }
      ],
      "name": "supportsInterface",
      "outputs": [
        {
          "internalType": "bool",
          "name": "",
          "type": "bool"
        }
      ],
      "stateMutability": "view",
      "type": "function"
    },
    {
      "inputs": [],
      "name": "symbol",
      "outputs": [
        {
          "internalType": "string",
          "name": "",
          "type": "string"
        }
      ],
      "stateMutability": "view",
      "type": "function"
    },
    {
      "inputs": [
        {
          "internalType": "uint256",
          "name": "index",
          "type": "uint256"
        }
      ],
      "name": "tokenByIndex",
      "outputs": [
        {
          "internalType": "uint256",
          "name": "",
          "type": "uint256"
        }
      ],
      "stateMutability": "view",
      "type": "function"
    },
    {
      "inputs": [
        {
          "internalType": "address",
          "name": "owner",
          "type": "address"
        },
        {
          "internalType": "uint256",
          "name": "index",
          "type": "uint256"
        }
      ],
      "name": "tokenOfOwnerByIndex",
      "outputs": [
        {
          "internalType": "uint256",
          "name": "",
          "type": "uint256"
        }
      ],
      "stateMutability": "view",
      "type": "function"
    },
    {
      "inputs": [
        {
          "internalType": "uint256",
          "name": "tokenId",
          "type": "uint256"
        }
      ],
      "name": "tokenURI",
      "outputs": [
        {
          "internalType": "string",
          "name": "",
          "type": "string"
        }
      ],
      "stateMutability": "view",
      "type": "function"
    },
    {
      "inputs": [],
      "name": "totalSupply",
      "outputs": [
        {
          "internalType": "uint256",
          "name": "",
          "type": "uint256"
        }
      ],
      "stateMutability": "view",
      "type": "function"
    },
    {
      "inputs": [
        {
          "internalType": "address",
          "name": "from",
          "type": "address"
        },
        {
          "internalType": "address",
          "name": "to",
          "type": "address"
        },
        {
          "internalType": "uint256",
          "name": "tokenId",
          "type": "uint256"
        }
      ],
      "name": "transferFrom",
      "outputs": [],
      "stateMutability": "nonpayable",
      "type": "function"
    },
    {
      "inputs": [
        {
          "internalType": "address",
          "name": "newOwner",
          "type": "address"
        }
      ],
      "name": "transferOwnership",
      "outputs": [],
      "stateMutability": "nonpayable",
      "type": "function"
    }
  ],
  "bytecode": "0x608060405234801561001057600080fd5b50336040518060400160405280600f81526020017f374f4e4720434f4c4c454354494f4e00000000000000000000000000000000008152506040518060400160405280600481526020017f374f4e4700000000000000000000000000000000000000000000000000000000815250816000908161008d919061043d565b50806001908161009d919061043d565b505050600073ffffffffffffffffffffffffffffffffffffffff168173ffffffffffffffffffffffffffffffffffffffff16036101125760006040517f1e4fbdf70000000000000000000000000000000000000000000000000000000081526004016101099190610550565b60405180910390fd5b6101218161012760201b60201c565b5061056b565b6000600b60009054906101000a900473ffffffffffffffffffffffffffffffffffffffff16905081600b60006101000a81548173ffffffffffffffffffffffffffffffffffffffff021916908373ffffffffffffffffffffffffffffffffffffffff1602179055508173ffffffffffffffffffffffffffffffffffffffff168173ffffffffffffffffffffffffffffffffffffffff167f8be0079c531659141344cd1fd0a4f28419497f9722a3daafe3b4186f6b6457e060405160405180910390a35050565b600081519050919050565b7f4e487b7100000000000000000000000000000000000000000000000000000000600052604160045260246000fd5b7f4e487b7100000000000000000000000000000000000000000000000000000000600052602260045260246000fd5b6000600282049050600182168061026e57607f821691505b60208210810361028157610280610227565b5b50919050565b60008190508160005260206000209050919050565b60006020601f8301049050919050565b600082821b905092915050565b6000600883026102e97fffffffffffffffffffffffffffffffffffffffffffffffffffffffffffffffff826102ac565b6102f386836102ac565b95508019841693508086168417925050509392505050565b6000819050919050565b6000819050919050565b600061033a6103356103308461030b565b610315565b61030b565b9050919050565b6000819050919050565b6103548361031f565b61036861036082610341565b8484546102b9565b825550505050565b600090565b61037d610370565b61038881848461034b565b505050565b5b818110156103ac576103a1600082610375565b60018101905061038e565b5050565b601f8211156103f1576103c281610287565b6103cb8461029c565b810160208510156103da578190505b6103ee6103e68561029c565b83018261038d565b50505b505050565b600082821c905092915050565b6000610414600019846008026103f6565b1980831691505092915050565b600061042d8383610403565b9150826002028217905092915050565b610446826101ed565b67ffffffffffffffff81111561045f5761045e6101f8565b5b6104698254610256565b6104748282856103b0565b600060209050601f8311600181146104a75760008415610495578287015190505b61049f8582610421565b865550610507565b601f1984166104b586610287565b60005b828110156104dd578489015182556001820191506020850194506020810190506104b8565b868310156104fa57848901516104f6601f891682610403565b8355505b6001600288020188555050505b505050505050565b600073ffffffffffffffffffffffffffffffffffffffff82169050919050565b600061053a8261050f565b9050919050565b61054a8161052f565b82525050565b60006020820190506105656000830184610541565b92915050565b612d9f8061057a6000396000f3fe608060405234801561001057600080fd5b506004361061012c5760003560e01c80636352211e116100ad578063a22cb46511610071578063a22cb46514610357578063b88d4fde14610373578063c87b56dd1461038f578063e985e9c5146103bf578063f2fde38b146103ef5761012c565b80636352211e146102b157806370a08231146102e1578063715018a6146103115780638da5cb5b1461031b57806395d89b41146103395761012c565b806323b872dd116100f457806323b872dd146101e95780632f2f2d56146102055780632f745c591461023557806342842e0e146102655780634f6ccce7146102815761012c565b806301ffc9a71461013157806306fdde0314610161578063081812fc1461017f578063095ea7b3146101af57806318160ddd146101cb575b600080fd5b61014b60048036038101906101469190612112565b61040b565b604051610158919061215a565b60405180910390f35b61016961041d565b6040516101769190612205565b60405180910390f35b6101996004803603810190610194919061225d565b6104af565b6040516101a691906122cb565b60405180910390f35b6101c960048036038101906101c49190612312565b6104cb565b005b6101d36104e1565b6040516101e09190612361565b60405180910390f35b61020360048036038101906101fe919061237c565b6104ee565b005b61021f600480360381019061021a9190612504565b6105f0565b60405161022c9190612361565b60405180910390f35b61024f600480360381019061024a9190612312565b610684565b60405161025c9190612361565b60405180910390f35b61027f600480360381019061027a919061237c565b61072d565b005b61029b6004803603810190610296919061225d565b61074d565b6040516102a89190612361565b60405180910390f35b6102cb60048036038101906102c6919061225d565b6107c3565b6040516102d891906122cb565b60405180910390f35b6102fb60048036038101906102f6919061257c565b6107d5565b6040516103089190612361565b60405180910390f35b61031961088f565b005b6103236108a3565b60405161033091906122cb565b60405180910390f35b6103416108cd565b60405161034e9190612205565b60405180910390f35b610371600480360381019061036c91906125d5565b61095f565b005b61038d600480360381019061038891906126b6565b610975565b005b6103a960048036038101906103a4919061225d565b61099a565b6040516103b69190612205565b60405180910390f35b6103d960048036038101906103d49190612739565b6109ac565b6040516103e6919061215a565b60405180910390f35b6104096004803603810190610404919061257c565b610a40565b005b600061041682610ac6565b9050919050565b60606000805461042c906127a8565b80601f0160208091040260200160405190810160405280929190818152602001828054610458906127a8565b80156104a55780601f1061047a576101008083540402835291602001916104a5565b820191906000526020600020905b81548152906001019060200180831161048857829003601f168201915b5050505050905090565b60006104ba82610b40565b506104c482610bc8565b9050919050565b6104dd82826104d8610c05565b610c0d565b5050565b6000600980549050905090565b600073ffffffffffffffffffffffffffffffffffffffff168273ffffffffffffffffffffffffffffffffffffffff16036105605760006040517f64a0ae9200000000000000000000000000000000000000000000000000000000815260040161055791906122cb565b60405180910390fd5b6000610574838361056f610c05565b610c1f565b90508373ffffffffffffffffffffffffffffffffffffffff168173ffffffffffffffffffffffffffffffffffffffff16146105ea578382826040517f64283d7b0000000000000000000000000000000000000000000000000000000081526004016105e1939291906127d9565b60405180910390fd5b50505050565b60006105fa610c35565b6000600c600081548092919061060f9061283f565b91905055905061061f3382610cbc565b6106298185610db5565b3373ffffffffffffffffffffffffffffffffffffffff16817f1d368960071e3d37d371cfcc833a857e9bcc111a607d33bfec8c7cf61366841d8686604051610672929190612887565b60405180910390a38091505092915050565b600061068f836107d5565b82106106d45782826040517fa57d13dc0000000000000000000000000000000000000000000000000000000081526004016106cb9291906128be565b60405180910390fd5b600760008473ffffffffffffffffffffffffffffffffffffffff1673ffffffffffffffffffffffffffffffffffffffff168152602001908152602001600020600083815260200190815260200160002054905092915050565b61074883838360405180602001604052806000815250610975565b505050565b60006107576104e1565b821061079d576000826040517fa57d13dc0000000000000000000000000000000000000000000000000000000081526004016107949291906128be565b60405180910390fd5b600982815481106107b1576107b06128e7565b5b90600052602060002001549050919050565b60006107ce82610b40565b9050919050565b60008073ffffffffffffffffffffffffffffffffffffffff168273ffffffffffffffffffffffffffffffffffffffff16036108485760006040517f89c62b6400000000000000000000000000000000000000000000000000000000815260040161083f91906122cb565b60405180910390fd5b600360008373ffffffffffffffffffffffffffffffffffffffff1673ffffffffffffffffffffffffffffffffffffffff168152602001908152602001600020549050919050565b610897610c35565b6108a16000610e11565b565b6000600b60009054906101000a900473ffffffffffffffffffffffffffffffffffffffff16905090565b6060600180546108dc906127a8565b80601f0160208091040260200160405190810160405280929190818152602001828054610908906127a8565b80156109555780601f1061092a57610100808354040283529160200191610955565b820191906000526020600020905b81548152906001019060200180831161093857829003601f168201915b5050505050905090565b61097161096a610c05565b8383610ed7565b5050565b6109808484846104ee565b61099461098b610c05565b85858585611046565b50505050565b60606109a5826111f7565b9050919050565b6000600560008473ffffffffffffffffffffffffffffffffffffffff1673ffffffffffffffffffffffffffffffffffffffff16815260200190815260200160002060008373ffffffffffffffffffffffffffffffffffffffff1673ffffffffffffffffffffffffffffffffffffffff16815260200190815260200160002060009054906101000a900460ff16905092915050565b610a48610c35565b600073ffffffffffffffffffffffffffffffffffffffff168173ffffffffffffffffffffffffffffffffffffffff1603610aba5760006040517f1e4fbdf7000000000000000000000000000000000000000000000000000000008152600401610ab191906122cb565b60405180910390fd5b610ac381610e11565b50565b60007f780e9d63000000000000000000000000000000000000000000000000000000007bffffffffffffffffffffffffffffffffffffffffffffffffffffffff1916827bffffffffffffffffffffffffffffffffffffffffffffffffffffffff19161480610b395750610b388261130a565b5b9050919050565b600080610b4c8361136b565b9050600073ffffffffffffffffffffffffffffffffffffffff168173ffffffffffffffffffffffffffffffffffffffff1603610bbf57826040517f7e273289000000000000000000000000000000000000000000000000000000008152600401610bb69190612361565b60405180910390fd5b80915050919050565b60006004600083815260200190815260200160002060009054906101000a900473ffffffffffffffffffffffffffffffffffffffff169050919050565b600033905090565b610c1a83838360016113a8565b505050565b6000610c2c84848461156d565b90509392505050565b610c3d610c05565b73ffffffffffffffffffffffffffffffffffffffff16610c5b6108a3565b73ffffffffffffffffffffffffffffffffffffffff1614610cba57610c7e610c05565b6040517f118cdaa7000000000000000000000000000000000000000000000000000000008152600401610cb191906122cb565b60405180910390fd5b565b600073ffffffffffffffffffffffffffffffffffffffff168273ffffffffffffffffffffffffffffffffffffffff1603610d2e5760006040517f64a0ae92000000000000000000000000000000000000000000000000000000008152600401610d2591906122cb565b60405180910390fd5b6000610d3c83836000610c1f565b9050600073ffffffffffffffffffffffffffffffffffffffff168173ffffffffffffffffffffffffffffffffffffffff1614610db05760006040517f73c6ac6e000000000000000000000000000000000000000000000000000000008152600401610da791906122cb565b60405180910390fd5b505050565b80600660008481526020019081526020016000209081610dd59190612ac2565b507ff8e1a15aba9398e019f0b49df1a4fde98ee17ae345cb5f6b5e2c27f5033e8ce782604051610e059190612361565b60405180910390a15050565b6000600b60009054906101000a900473ffffffffffffffffffffffffffffffffffffffff16905081600b60006101000a81548173ffffffffffffffffffffffffffffffffffffffff021916908373ffffffffffffffffffffffffffffffffffffffff1602179055508173ffffffffffffffffffffffffffffffffffffffff168173ffffffffffffffffffffffffffffffffffffffff167f8be0079c531659141344cd1fd0a4f28419497f9722a3daafe3b4186f6b6457e060405160405180910390a35050565b600073ffffffffffffffffffffffffffffffffffffffff168273ffffffffffffffffffffffffffffffffffffffff1603610f4857816040517f5b08ba18000000000000000000000000000000000000000000000000000000008152600401610f3f91906122cb565b60405180910390fd5b80600560008573ffffffffffffffffffffffffffffffffffffffff1673ffffffffffffffffffffffffffffffffffffffff16815260200190815260200160002060008473ffffffffffffffffffffffffffffffffffffffff1673ffffffffffffffffffffffffffffffffffffffff16815260200190815260200160002060006101000a81548160ff0219169083151502179055508173ffffffffffffffffffffffffffffffffffffffff168373ffffffffffffffffffffffffffffffffffffffff167f17307eab39ab6107e8899845ad3d59bd9653f200f220920489ca2b5937696c3183604051611039919061215a565b60405180910390a3505050565b60008373ffffffffffffffffffffffffffffffffffffffff163b11156111f0578273ffffffffffffffffffffffffffffffffffffffff1663150b7a02868685856040518563ffffffff1660e01b81526004016110a59493929190612be9565b6020604051808303816000875af19250505080156110e157506040513d601f19601f820116820180604052508101906110de9190612c4a565b60015b611165573d8060008114611111576040519150601f19603f3d011682016040523d82523d6000602084013e611116565b606091505b50600081510361115d57836040517f64a0ae9200000000000000000000000000000000000000000000000000000000815260040161115491906122cb565b60405180910390fd5b805160208201fd5b63150b7a0260e01b7bffffffffffffffffffffffffffffffffffffffffffffffffffffffff1916817bffffffffffffffffffffffffffffffffffffffffffffffffffffffff1916146111ee57836040517f64a0ae920000000000000000000000000000000000000000000000000000000081526004016111e591906122cb565b60405180910390fd5b505b5050505050565b606061120282610b40565b506000600660008481526020019081526020016000208054611223906127a8565b80601f016020809104026020016040519081016040528092919081815260200182805461124f906127a8565b801561129c5780601f106112715761010080835404028352916020019161129c565b820191906000526020600020905b81548152906001019060200180831161127f57829003601f168201915b5050505050905060006112ad61168a565b905060008151036112c2578192505050611305565b6000825111156112f75780826040516020016112df929190612cb3565b60405160208183030381529060405292505050611305565b611300846116a1565b925050505b919050565b6000634906490660e01b7bffffffffffffffffffffffffffffffffffffffffffffffffffffffff1916827bffffffffffffffffffffffffffffffffffffffffffffffffffffffff1916148061136457506113638261170a565b5b9050919050565b60006002600083815260200190815260200160002060009054906101000a900473ffffffffffffffffffffffffffffffffffffffff169050919050565b80806113e15750600073ffffffffffffffffffffffffffffffffffffffff168273ffffffffffffffffffffffffffffffffffffffff1614155b156115155760006113f184610b40565b9050600073ffffffffffffffffffffffffffffffffffffffff168373ffffffffffffffffffffffffffffffffffffffff161415801561145c57508273ffffffffffffffffffffffffffffffffffffffff168173ffffffffffffffffffffffffffffffffffffffff1614155b801561146f575061146d81846109ac565b155b156114b157826040517fa9fbf51f0000000000000000000000000000000000000000000000000000000081526004016114a891906122cb565b60405180910390fd5b811561151357838573ffffffffffffffffffffffffffffffffffffffff168273ffffffffffffffffffffffffffffffffffffffff167f8c5be1e5ebec7d5bd14f71427d1e84f3dd0314c0f7b2291e5b200ac8c7c3b92560405160405180910390a45b505b836004600085815260200190815260200160002060006101000a81548173ffffffffffffffffffffffffffffffffffffffff021916908373ffffffffffffffffffffffffffffffffffffffff16021790555050505050565b60008061157b8585856117ec565b9050600073ffffffffffffffffffffffffffffffffffffffff168173ffffffffffffffffffffffffffffffffffffffff16036115bf576115ba84611a06565b6115fe565b8473ffffffffffffffffffffffffffffffffffffffff168173ffffffffffffffffffffffffffffffffffffffff16146115fd576115fc8185611a4f565b5b5b600073ffffffffffffffffffffffffffffffffffffffff168573ffffffffffffffffffffffffffffffffffffffff16036116405761163b84611b3a565b61167f565b8473ffffffffffffffffffffffffffffffffffffffff168173ffffffffffffffffffffffffffffffffffffffff161461167e5761167d8585611c0b565b5b5b809150509392505050565b606060405180602001604052806000815250905090565b60606116ac82610b40565b5060006116b761168a565b905060008151116116d75760405180602001604052806000815250611702565b806116e184611c96565b6040516020016116f2929190612cb3565b6040516020818303038152906040525b915050919050565b60007f80ac58cd000000000000000000000000000000000000000000000000000000007bffffffffffffffffffffffffffffffffffffffffffffffffffffffff1916827bffffffffffffffffffffffffffffffffffffffffffffffffffffffff191614806117d557507f5b5e139f000000000000000000000000000000000000000000000000000000007bffffffffffffffffffffffffffffffffffffffffffffffffffffffff1916827bffffffffffffffffffffffffffffffffffffffffffffffffffffffff1916145b806117e557506117e482611d64565b5b9050919050565b6000806117f88461136b565b9050600073ffffffffffffffffffffffffffffffffffffffff168373ffffffffffffffffffffffffffffffffffffffff161461183a57611839818486611dce565b5b600073ffffffffffffffffffffffffffffffffffffffff168173ffffffffffffffffffffffffffffffffffffffff16146118cb5761187c6000856000806113a8565b6001600360008373ffffffffffffffffffffffffffffffffffffffff1673ffffffffffffffffffffffffffffffffffffffff168152602001908152602001600020600082825403925050819055505b600073ffffffffffffffffffffffffffffffffffffffff168573ffffffffffffffffffffffffffffffffffffffff161461194e576001600360008773ffffffffffffffffffffffffffffffffffffffff1673ffffffffffffffffffffffffffffffffffffffff168152602001908152602001600020600082825401925050819055505b846002600086815260200190815260200160002060006101000a81548173ffffffffffffffffffffffffffffffffffffffff021916908373ffffffffffffffffffffffffffffffffffffffff160217905550838573ffffffffffffffffffffffffffffffffffffffff168273ffffffffffffffffffffffffffffffffffffffff167fddf252ad1be2c89b69c2b068fc378daa952ba7f163c4a11628f55a4df523b3ef60405160405180910390a4809150509392505050565b600980549050600a600083815260200190815260200160002081905550600981908060018154018082558091505060019003906000526020600020016000909190919091505550565b6000611a5a836107d5565b90506000600860008481526020019081526020016000205490506000600760008673ffffffffffffffffffffffffffffffffffffffff1673ffffffffffffffffffffffffffffffffffffffff1681526020019081526020016000209050828214611b065760008160008581526020019081526020016000205490508082600085815260200190815260200160002081905550826008600083815260200190815260200160002081905550505b6008600085815260200190815260200160002060009055806000848152602001908152602001600020600090555050505050565b60006001600980549050611b4e9190612cd7565b90506000600a6000848152602001908152602001600020549050600060098381548110611b7e57611b7d6128e7565b5b906000526020600020015490508060098381548110611ba057611b9f6128e7565b5b906000526020600020018190555081600a600083815260200190815260200160002081905550600a6000858152602001908152602001600020600090556009805480611bef57611bee612d0b565b5b6001900381819060005260206000200160009055905550505050565b60006001611c18846107d5565b611c229190612cd7565b905081600760008573ffffffffffffffffffffffffffffffffffffffff1673ffffffffffffffffffffffffffffffffffffffff168152602001908152602001600020600083815260200190815260200160002081905550806008600084815260200190815260200160002081905550505050565b606060006001611ca584611e92565b01905060008167ffffffffffffffff811115611cc457611cc36123d9565b5b6040519080825280601f01601f191660200182016040528015611cf65781602001600182028036833780820191505090505b509050600082602083010190505b600115611d59578080600190039150507f3031323334353637383961626364656600000000000000000000000000000000600a86061a8153600a8581611d4d57611d4c612d3a565b5b04945060008503611d04575b819350505050919050565b60007f01ffc9a7000000000000000000000000000000000000000000000000000000007bffffffffffffffffffffffffffffffffffffffffffffffffffffffff1916827bffffffffffffffffffffffffffffffffffffffffffffffffffffffff1916149050919050565b611dd9838383611fe5565b611e8d57600073ffffffffffffffffffffffffffffffffffffffff168373ffffffffffffffffffffffffffffffffffffffff1603611e4e57806040517f7e273289000000000000000000000000000000000000000000000000000000008152600401611e459190612361565b60405180910390fd5b81816040517f177e802f000000000000000000000000000000000000000000000000000000008152600401611e849291906128be565b60405180910390fd5b505050565b600080600090507a184f03e93ff9f4daa797ed6e38ed64bf6a1f0100000000000000008310611ef0577a184f03e93ff9f4daa797ed6e38ed64bf6a1f0100000000000000008381611ee657611ee5612d3a565b5b0492506040810190505b6d04ee2d6d415b85acef81000000008310611f2d576d04ee2d6d415b85acef81000000008381611f2357611f22612d3a565b5b0492506020810190505b662386f26fc100008310611f5c57662386f26fc100008381611f5257611f51612d3a565b5b0492506010810190505b6305f5e1008310611f85576305f5e1008381611f7b57611f7a612d3a565b5b0492506008810190505b6127108310611faa576127108381611fa057611f9f612d3a565b5b0492506004810190505b60648310611fcd5760648381611fc357611fc2612d3a565b5b0492506002810190505b600a8310611fdc576001810190505b80915050919050565b60008073ffffffffffffffffffffffffffffffffffffffff168373ffffffffffffffffffffffffffffffffffffffff161415801561209d57508273ffffffffffffffffffffffffffffffffffffffff168473ffffffffffffffffffffffffffffffffffffffff16148061205e575061205d84846109ac565b5b8061209c57508273ffffffffffffffffffffffffffffffffffffffff1661208483610bc8565b73ffffffffffffffffffffffffffffffffffffffff16145b5b90509392505050565b6000604051905090565b600080fd5b600080fd5b60007fffffffff0000000000000000000000000000000000000000000000000000000082169050919050565b6120ef816120ba565b81146120fa57600080fd5b50565b60008135905061210c816120e6565b92915050565b600060208284031215612128576121276120b0565b5b6000612136848285016120fd565b91505092915050565b60008115159050919050565b6121548161213f565b82525050565b600060208201905061216f600083018461214b565b92915050565b600081519050919050565b600082825260208201905092915050565b60005b838110156121af578082015181840152602081019050612194565b60008484015250505050565b6000601f19601f8301169050919050565b60006121d782612175565b6121e18185612180565b93506121f1818560208601612191565b6121fa816121bb565b840191505092915050565b6000602082019050818103600083015261221f81846121cc565b905092915050565b6000819050919050565b61223a81612227565b811461224557600080fd5b50565b60008135905061225781612231565b92915050565b600060208284031215612273576122726120b0565b5b600061228184828501612248565b91505092915050565b600073ffffffffffffffffffffffffffffffffffffffff82169050919050565b60006122b58261228a565b9050919050565b6122c5816122aa565b82525050565b60006020820190506122e060008301846122bc565b92915050565b6122ef816122aa565b81146122fa57600080fd5b50565b60008135905061230c816122e6565b92915050565b60008060408385031215612329576123286120b0565b5b6000612337858286016122fd565b925050602061234885828601612248565b9150509250929050565b61235b81612227565b82525050565b60006020820190506123766000830184612352565b92915050565b600080600060608486031215612395576123946120b0565b5b60006123a3868287016122fd565b93505060206123b4868287016122fd565b92505060406123c586828701612248565b9150509250925092565b600080fd5b600080fd5b7f4e487b7100000000000000000000000000000000000000000000000000000000600052604160045260246000fd5b612411826121bb565b810181811067ffffffffffffffff821117156124305761242f6123d9565b5b80604052505050565b60006124436120a6565b905061244f8282612408565b919050565b600067ffffffffffffffff82111561246f5761246e6123d9565b5b612478826121bb565b9050602081019050919050565b82818337600083830152505050565b60006124a76124a284612454565b612439565b9050828152602081018484840111156124c3576124c26123d4565b5b6124ce848285612485565b509392505050565b600082601f8301126124eb576124ea6123cf565b5b81356124fb848260208601612494565b91505092915050565b6000806040838503121561251b5761251a6120b0565b5b600083013567ffffffffffffffff811115612539576125386120b5565b5b612545858286016124d6565b925050602083013567ffffffffffffffff811115612566576125656120b5565b5b612572858286016124d6565b9150509250929050565b600060208284031215612592576125916120b0565b5b60006125a0848285016122fd565b91505092915050565b6125b28161213f565b81146125bd57600080fd5b50565b6000813590506125cf816125a9565b92915050565b600080604083850312156125ec576125eb6120b0565b5b60006125fa858286016122fd565b925050602061260b858286016125c0565b9150509250929050565b600067ffffffffffffffff8211156126305761262f6123d9565b5b612639826121bb565b9050602081019050919050565b600061265961265484612615565b612439565b905082815260208101848484011115612675576126746123d4565b5b612680848285612485565b509392505050565b600082601f83011261269d5761269c6123cf565b5b81356126ad848260208601612646565b91505092915050565b600080600080608085870312156126d0576126cf6120b0565b5b60006126de878288016122fd565b94505060206126ef878288016122fd565b935050604061270087828801612248565b925050606085013567ffffffffffffffff811115612721576127206120b5565b5b61272d87828801612688565b91505092959194509250565b600080604083850312156127505761274f6120b0565b5b600061275e858286016122fd565b925050602061276f858286016122fd565b9150509250929050565b7f4e487b7100000000000000000000000000000000000000000000000000000000600052602260045260246000fd5b600060028204905060018216806127c057607f821691505b6020821081036127d3576127d2612779565b5b50919050565b60006060820190506127ee60008301866122bc565b6127fb6020830185612352565b61280860408301846122bc565b949350505050565b7f4e487b7100000000000000000000000000000000000000000000000000000000600052601160045260246000fd5b600061284a82612227565b91507fffffffffffffffffffffffffffffffffffffffffffffffffffffffffffffffff820361287c5761287b612810565b5b600182019050919050565b600060408201905081810360008301526128a181856121cc565b905081810360208301526128b581846121cc565b90509392505050565b60006040820190506128d360008301856122bc565b6128e06020830184612352565b9392505050565b7f4e487b7100000000000000000000000000000000000000000000000000000000600052603260045260246000fd5b60008190508160005260206000209050919050565b60006020601f8301049050919050565b600082821b905092915050565b6000600883026129787fffffffffffffffffffffffffffffffffffffffffffffffffffffffffffffffff8261293b565b612982868361293b565b95508019841693508086168417925050509392505050565b6000819050919050565b60006129bf6129ba6129b584612227565b61299a565b612227565b9050919050565b6000819050919050565b6129d9836129a4565b6129ed6129e5826129c6565b848454612948565b825550505050565b600090565b612a026129f5565b612a0d8184846129d0565b505050565b5b81811015612a3157612a266000826129fa565b600181019050612a13565b5050565b601f821115612a7657612a4781612916565b612a508461292b565b81016020851015612a5f578190505b612a73612a6b8561292b565b830182612a12565b50505b505050565b600082821c905092915050565b6000612a9960001984600802612a7b565b1980831691505092915050565b6000612ab28383612a88565b9150826002028217905092915050565b612acb82612175565b67ffffffffffffffff811115612ae457612ae36123d9565b5b612aee82546127a8565b612af9828285612a35565b600060209050601f831160018114612b2c5760008415612b1a578287015190505b612b248582612aa6565b865550612b8c565b601f198416612b3a86612916565b60005b82811015612b6257848901518255600182019150602085019450602081019050612b3d565b86831015612b7f5784890151612b7b601f891682612a88565b8355505b6001600288020188555050505b505050505050565b600081519050919050565b600082825260208201905092915050565b6000612bbb82612b94565b612bc58185612b9f565b9350612bd5818560208601612191565b612bde816121bb565b840191505092915050565b6000608082019050612bfe60008301876122bc565b612c0b60208301866122bc565b612c186040830185612352565b8181036060830152612c2a8184612bb0565b905095945050505050565b600081519050612c44816120e6565b92915050565b600060208284031215612c6057612c5f6120b0565b5b6000612c6e84828501612c35565b91505092915050565b600081905092915050565b6000612c8d82612175565b612c978185612c77565b9350612ca7818560208601612191565b80840191505092915050565b6000612cbf8285612c82565b9150612ccb8284612c82565b91508190509392505050565b6000612ce282612227565b9150612ced83612227565b9250828203905081811115612d0557612d04612810565b5b92915050565b7f4e487b7100000000000000000000000000000000000000000000000000000000600052603160045260246000fd5b7f4e487b7100000000000000000000000000000000000000000000000000000000600052601260045260246000fdfea2646970667358221220af47c474a2199e422e9038733b196636f900c49188eeaff13b90cc129de0bab164736f6c634300081c0033",
  "linkReferences": {},
  "deployedLinkReferences": {}
}