{
  "_format": "hh-sol-artifact-1",
  "contractName": "NFTMarketplace",
  "sourceName": "contracts/NFTMarketplace.sol",
  "abi": [
    {
      "inputs": [
        {
          "internalType": "uint256",
          "name": "_feePercent",
          "type": "uint256"
        }
      ],
      "stateMutability": "nonpayable",
      "type": "constructor"
    },
    {
      "inputs": [
        {
          "internalType": "address",
          "name": "owner",
          "type": "address"
        }
      ],
      "name": "OwnableInvalidOwner",
      "type": "error"
    },
    {
      "inputs": [
        {
          "internalType": "address",
          "name": "account",
          "type": "address"
        }
      ],
      "name": "OwnableUnauthorizedAccount",
      "type": "error"
    },
    {
      "inputs": [],
      "name": "ReentrancyGuardReentrantCall",
      "type": "error"
    },
    {
      "anonymous": false,
      "inputs": [
        {
          "indexed": true,
          "internalType": "address",
          "name": "beneficiary",
          "type": "address"
        },
        {
          "indexed": false,
          "internalType": "uint256",
          "name": "amount",
          "type": "uint256"
        }
      ],
      "name": "FundsWithdrawn",
      "type": "event"
    },
    {
      "anonymous": false,
      "inputs": [
        {
          "indexed": true,
          "internalType": "address",
          "name": "nftContract",
          "type": "address"
        },
        {
          "indexed": false,
          "internalType": "uint256",
          "name": "price",
          "type": "uint256"
        },
        {
          "indexed": true,
          "internalType": "uint256",
          "name": "tokenId",
          "type": "uint256"
        },
        {
          "indexed": false,
          "internalType": "address",
          "name": "buyer",
          "type": "address"
        }
      ],
      "name": "ItemBought",
      "type": "event"
    },
    {
      "anonymous": false,
      "inputs": [
        {
          "indexed": true,
          "internalType": "address",
          "name": "nftContract",
          "type": "address"
        },
        {
          "indexed": false,
          "internalType": "uint256",
          "name": "price",
          "type": "uint256"
        },
        {
          "indexed": true,
          "internalType": "uint256",
          "name": "tokenId",
          "type": "uint256"
        },
        {
          "indexed": false,
          "internalType": "address",
          "name": "seller",
          "type": "address"
        }
      ],
      "name": "ItemListed",
      "type": "event"
    },
    {
      "anonymous": false,
      "inputs": [
        {
          "indexed": true,
          "internalType": "address",
          "name": "previousOwner",
          "type": "address"
        },
        {
          "indexed": true,
          "internalType": "address",
          "name": "newOwner",
          "type": "address"
        }
      ],
      "name": "OwnershipTransferred",
      "type": "event"
    },
    {
      "inputs": [
        {
          "internalType": "address",
          "name": "",
          "type": "address"
        }
      ],
      "name": "balances",
      "outputs": [
        {
          "internalType": "uint256",
          "name": "",
          "type": "uint256"
        }
      ],
      "stateMutability": "view",
      "type": "function"
    },
    {
      "inputs": [
        {
          "internalType": "address",
          "name": "_nftContract",
          "type": "address"
        },
        {
          "internalType": "uint256",
          "name": "_tokenId",
          "type": "uint256"
        }
      ],
      "name": "buyItem",
      "outputs": [],
      "stateMutability": "payable",
      "type": "function"
    },
    {
      "inputs": [],
      "name": "feePercent",
      "outputs": [
        {
          "internalType": "uint256",
          "name": "",
          "type": "uint256"
        }
      ],
      "stateMutability": "view",
      "type": "function"
    },
    {
      "inputs": [
        {
          "internalType": "address",
          "name": "_nftContract",
          "type": "address"
        },
        {
          "internalType": "uint256",
          "name": "_tokenId",
          "type": "uint256"
        },
        {
          "internalType": "uint256",
          "name": "_price",
          "type": "uint256"
        }
      ],
      "name": "listItem",
      "outputs": [],
      "stateMutability": "nonpayable",
      "type": "function"
    },
    {
      "inputs": [
        {
          "internalType": "address",
          "name": "",
          "type": "address"
        },
        {
          "internalType": "uint256",
          "name": "",
          "type": "uint256"
        }
      ],
      "name": "listings",
      "outputs": [
        {
          "internalType": "uint256",
          "name": "price",
          "type": "uint256"
        },
        {
          "internalType": "address",
          "name": "seller",
          "type": "address"
        },
        {
          "internalType": "bool",
          "name": "isActive",
          "type": "bool"
        }
      ],
      "stateMutability": "view",
      "type": "function"
    },
    {
      "inputs": [],
      "name": "owner",
      "outputs": [
        {
          "internalType": "address",
          "name": "",
          "type": "address"
        }
      ],
      "stateMutability": "view",
      "type": "function"
    },
    {
      "inputs": [],
      "name": "renounceOwnership",
      "outputs": [],
      "stateMutability": "nonpayable",
      "type": "function"
    },
    {
      "inputs": [
        {
          "internalType": "address",
          "name": "newOwner",
          "type": "address"
        }
      ],
      "name": "transferOwnership",
      "outputs": [],
      "stateMutability": "nonpayable",
      "type": "function"
    },
    {
      "inputs": [],
      "name": "withdrawProceeds",
      "outputs": [],
      "stateMutability": "nonpayable",
      "type": "function"
    }
  ],
  "bytecode": "0x608060405234801561001057600080fd5b506040516117ca3803806117ca833981810160405281019061003291906101cb565b336001600081905550600073ffffffffffffffffffffffffffffffffffffffff168173ffffffffffffffffffffffffffffffffffffffff16036100ad5760006040517f1e4fbdf70000000000000000000000000000000000000000000000000000000081526004016100a49190610239565b60405180910390fd5b6100bc816100ca60201b60201c565b508060028190555050610254565b6000600160009054906101000a900473ffffffffffffffffffffffffffffffffffffffff16905081600160006101000a81548173ffffffffffffffffffffffffffffffffffffffff021916908373ffffffffffffffffffffffffffffffffffffffff1602179055508173ffffffffffffffffffffffffffffffffffffffff168173ffffffffffffffffffffffffffffffffffffffff167f8be0079c531659141344cd1fd0a4f28419497f9722a3daafe3b4186f6b6457e060405160405180910390a35050565b600080fd5b6000819050919050565b6101a881610195565b81146101b357600080fd5b50565b6000815190506101c58161019f565b92915050565b6000602082840312156101e1576101e0610190565b5b60006101ef848285016101b6565b91505092915050565b600073ffffffffffffffffffffffffffffffffffffffff82169050919050565b6000610223826101f8565b9050919050565b61023381610218565b82525050565b600060208201905061024e600083018461022a565b92915050565b611567806102636000396000f3fe6080604052600436106100855760003560e01c806389bfd38f1161005957806389bfd38f146101485780638da5cb5b146101715780639038e6931461019c5780639f37092a146101b3578063f2fde38b146101cf57610085565b806207df301461008a57806327e235e3146100c9578063715018a6146101065780637fd6f15c1461011d575b600080fd5b34801561009657600080fd5b506100b160048036038101906100ac9190610dfd565b6101f8565b6040516100c093929190610e76565b60405180910390f35b3480156100d557600080fd5b506100f060048036038101906100eb9190610ead565b61025c565b6040516100fd9190610eda565b60405180910390f35b34801561011257600080fd5b5061011b610274565b005b34801561012957600080fd5b50610132610288565b60405161013f9190610eda565b60405180910390f35b34801561015457600080fd5b5061016f600480360381019061016a9190610ef5565b61028e565b005b34801561017d57600080fd5b50610186610646565b6040516101939190610f48565b60405180910390f35b3480156101a857600080fd5b506101b1610670565b005b6101cd60048036038101906101c89190610dfd565b61084a565b005b3480156101db57600080fd5b506101f660048036038101906101f19190610ead565b610b39565b005b6003602052816000526040600020602052806000526040600020600091509150508060000154908060010160009054906101000a900473ffffffffffffffffffffffffffffffffffffffff16908060010160149054906101000a900460ff16905083565b60046020528060005260406000206000915090505481565b61027c610bbf565b6102866000610c46565b565b60025481565b610296610d0c565b600081116102d9576040517f08c379a00000000000000000000000000000000000000000000000000000000081526004016102d090610fe6565b60405180910390fd5b60008390503373ffffffffffffffffffffffffffffffffffffffff168173ffffffffffffffffffffffffffffffffffffffff16636352211e856040518263ffffffff1660e01b815260040161032e9190610eda565b602060405180830381865afa15801561034b573d6000803e3d6000fd5b505050506040513d601f19601f8201168201806040525081019061036f919061101b565b73ffffffffffffffffffffffffffffffffffffffff16146103c5576040517f08c379a00000000000000000000000000000000000000000000000000000000081526004016103bc90611094565b60405180910390fd5b8073ffffffffffffffffffffffffffffffffffffffff1663e985e9c533306040518363ffffffff1660e01b81526004016104009291906110b4565b602060405180830381865afa15801561041d573d6000803e3d6000fd5b505050506040513d601f19601f820116820180604052508101906104419190611109565b610480576040517f08c379a000000000000000000000000000000000000000000000000000000000815260040161047790611182565b60405180910390fd5b60405180606001604052808381526020013373ffffffffffffffffffffffffffffffffffffffff16815260200160011515815250600360008673ffffffffffffffffffffffffffffffffffffffff1673ffffffffffffffffffffffffffffffffffffffff16815260200190815260200160002060008581526020019081526020016000206000820151816000015560208201518160010160006101000a81548173ffffffffffffffffffffffffffffffffffffffff021916908373ffffffffffffffffffffffffffffffffffffffff16021790555060408201518160010160146101000a81548160ff0219169083151502179055509050508073ffffffffffffffffffffffffffffffffffffffff166323b872dd3330866040518463ffffffff1660e01b81526004016105b5939291906111a2565b600060405180830381600087803b1580156105cf57600080fd5b505af11580156105e3573d6000803e3d6000fd5b50505050828473ffffffffffffffffffffffffffffffffffffffff167ff72a1a7f0543c16546019eb0a601ab3e64090c3eec1a7f6479355bf2e9f49c4984336040516106309291906111d9565b60405180910390a350610641610d52565b505050565b6000600160009054906101000a900473ffffffffffffffffffffffffffffffffffffffff16905090565b610678610d0c565b6000600460003373ffffffffffffffffffffffffffffffffffffffff1673ffffffffffffffffffffffffffffffffffffffff168152602001908152602001600020549050600081116106ff576040517f08c379a00000000000000000000000000000000000000000000000000000000081526004016106f69061124e565b60405180910390fd5b6000600460003373ffffffffffffffffffffffffffffffffffffffff1673ffffffffffffffffffffffffffffffffffffffff1681526020019081526020016000208190555060003373ffffffffffffffffffffffffffffffffffffffff168260405161076a9061129f565b60006040518083038185875af1925050503d80600081146107a7576040519150601f19603f3d011682016040523d82523d6000602084013e6107ac565b606091505b50509050806107f0576040517f08c379a00000000000000000000000000000000000000000000000000000000081526004016107e790611300565b60405180910390fd5b3373ffffffffffffffffffffffffffffffffffffffff167feaff4b37086828766ad3268786972c0cd24259d4c87a80f9d3963a3c3d999b0d836040516108369190610eda565b60405180910390a25050610848610d52565b565b610852610d0c565b6000600360008473ffffffffffffffffffffffffffffffffffffffff1673ffffffffffffffffffffffffffffffffffffffff168152602001908152602001600020600083815260200190815260200160002090508060010160149054906101000a900460ff166108f7576040517f08c379a00000000000000000000000000000000000000000000000000000000081526004016108ee9061136c565b60405180910390fd5b806000015434101561093e576040517f08c379a0000000000000000000000000000000000000000000000000000000008152600401610935906113d8565b60405180910390fd5b60008160010160146101000a81548160ff021916908315150217905550600034905060006064600254836109729190611427565b61097c9190611498565b90506000818361098c91906114c9565b905080600460008660010160009054906101000a900473ffffffffffffffffffffffffffffffffffffffff1673ffffffffffffffffffffffffffffffffffffffff1673ffffffffffffffffffffffffffffffffffffffff1681526020019081526020016000206000828254610a0191906114fd565b925050819055508160046000610a15610646565b73ffffffffffffffffffffffffffffffffffffffff1673ffffffffffffffffffffffffffffffffffffffff1681526020019081526020016000206000828254610a5e91906114fd565b925050819055508573ffffffffffffffffffffffffffffffffffffffff166323b872dd3033886040518463ffffffff1660e01b8152600401610aa2939291906111a2565b600060405180830381600087803b158015610abc57600080fd5b505af1158015610ad0573d6000803e3d6000fd5b50505050848673ffffffffffffffffffffffffffffffffffffffff167fb03f92a114afd6f0d9b0dc2b572bd8abbd11540e53119b0c574034469bd50d24866000015433604051610b219291906111d9565b60405180910390a350505050610b35610d52565b5050565b610b41610bbf565b600073ffffffffffffffffffffffffffffffffffffffff168173ffffffffffffffffffffffffffffffffffffffff1603610bb35760006040517f1e4fbdf7000000000000000000000000000000000000000000000000000000008152600401610baa9190610f48565b60405180910390fd5b610bbc81610c46565b50565b610bc7610d5c565b73ffffffffffffffffffffffffffffffffffffffff16610be5610646565b73ffffffffffffffffffffffffffffffffffffffff1614610c4457610c08610d5c565b6040517f118cdaa7000000000000000000000000000000000000000000000000000000008152600401610c3b9190610f48565b60405180910390fd5b565b6000600160009054906101000a900473ffffffffffffffffffffffffffffffffffffffff16905081600160006101000a81548173ffffffffffffffffffffffffffffffffffffffff021916908373ffffffffffffffffffffffffffffffffffffffff1602179055508173ffffffffffffffffffffffffffffffffffffffff168173ffffffffffffffffffffffffffffffffffffffff167f8be0079c531659141344cd1fd0a4f28419497f9722a3daafe3b4186f6b6457e060405160405180910390a35050565b600260005403610d48576040517f3ee5aeb500000000000000000000000000000000000000000000000000000000815260040160405180910390fd5b6002600081905550565b6001600081905550565b600033905090565b600080fd5b600073ffffffffffffffffffffffffffffffffffffffff82169050919050565b6000610d9482610d69565b9050919050565b610da481610d89565b8114610daf57600080fd5b50565b600081359050610dc181610d9b565b92915050565b6000819050919050565b610dda81610dc7565b8114610de557600080fd5b50565b600081359050610df781610dd1565b92915050565b60008060408385031215610e1457610e13610d64565b5b6000610e2285828601610db2565b9250506020610e3385828601610de8565b9150509250929050565b610e4681610dc7565b82525050565b610e5581610d89565b82525050565b60008115159050919050565b610e7081610e5b565b82525050565b6000606082019050610e8b6000830186610e3d565b610e986020830185610e4c565b610ea56040830184610e67565b949350505050565b600060208284031215610ec357610ec2610d64565b5b6000610ed184828501610db2565b91505092915050565b6000602082019050610eef6000830184610e3d565b92915050565b600080600060608486031215610f0e57610f0d610d64565b5b6000610f1c86828701610db2565b9350506020610f2d86828701610de8565b9250506040610f3e86828701610de8565b9150509250925092565b6000602082019050610f5d6000830184610e4c565b92915050565b600082825260208201905092915050565b7f496e76616c69642042616c616e63652c20506c6561736520436865636b20596f60008201527f75722042616c616e636500000000000000000000000000000000000000000000602082015250565b6000610fd0602a83610f63565b9150610fdb82610f74565b604082019050919050565b60006020820190508181036000830152610fff81610fc3565b9050919050565b60008151905061101581610d9b565b92915050565b60006020828403121561103157611030610d64565b5b600061103f84828501611006565b91505092915050565b7f496e76616c6964204f776e657200000000000000000000000000000000000000600082015250565b600061107e600d83610f63565b915061108982611048565b602082019050919050565b600060208201905081810360008301526110ad81611071565b9050919050565b60006040820190506110c96000830185610e4c565b6110d66020830184610e4c565b9392505050565b6110e681610e5b565b81146110f157600080fd5b50565b600081519050611103816110dd565b92915050565b60006020828403121561111f5761111e610d64565b5b600061112d848285016110f4565b91505092915050565b7f436f6e7472616374204e6f7420417070726f7665640000000000000000000000600082015250565b600061116c601583610f63565b915061117782611136565b602082019050919050565b6000602082019050818103600083015261119b8161115f565b9050919050565b60006060820190506111b76000830186610e4c565b6111c46020830185610e4c565b6111d16040830184610e3d565b949350505050565b60006040820190506111ee6000830185610e3d565b6111fb6020830184610e4c565b9392505050565b7f4e6f2046756e647320746f205769746864726177000000000000000000000000600082015250565b6000611238601483610f63565b915061124382611202565b602082019050919050565b600060208201905081810360008301526112678161122b565b9050919050565b600081905092915050565b50565b600061128960008361126e565b915061129482611279565b600082019050919050565b60006112aa8261127c565b9150819050919050565b7f5769746864726177616c204661696c6564000000000000000000000000000000600082015250565b60006112ea601183610f63565b91506112f5826112b4565b602082019050919050565b60006020820190508181036000830152611319816112dd565b9050919050565b7f4974656d204e6f74204c6973746564206f7220416c726561647920536f6c6400600082015250565b6000611356601f83610f63565b915061136182611320565b602082019050919050565b6000602082019050818103600083015261138581611349565b9050919050565b7f496e73756666696369656e742046756e64732053656e74000000000000000000600082015250565b60006113c2601783610f63565b91506113cd8261138c565b602082019050919050565b600060208201905081810360008301526113f1816113b5565b9050919050565b7f4e487b7100000000000000000000000000000000000000000000000000000000600052601160045260246000fd5b600061143282610dc7565b915061143d83610dc7565b925082820261144b81610dc7565b91508282048414831517611462576114616113f8565b5b5092915050565b7f4e487b7100000000000000000000000000000000000000000000000000000000600052601260045260246000fd5b60006114a382610dc7565b91506114ae83610dc7565b9250826114be576114bd611469565b5b828204905092915050565b60006114d482610dc7565b91506114df83610dc7565b92508282039050818111156114f7576114f66113f8565b5b92915050565b600061150882610dc7565b915061151383610dc7565b925082820190508082111561152b5761152a6113f8565b5b9291505056fea2646970667358221220315246015d1da991d39abfe1e523b17f94099d2cf4ef43449e66790d305eefa764736f6c634300081c0033",
  "linkReferences": {},
  "deployedLinkReferences": {}
}