{
  "_format": "hh-sol-artifact-1",
  "contractName": "NFTMarketplace",
  "sourceName": "contracts/NFTMarketplace.sol",
  "abi": [
    {
      "inputs": [
        {
          "internalType": "uint256",
          "name": "_feePercent",
          "type": "uint256"
        }
      ],
      "stateMutability": "nonpayable",
      "type": "constructor"
    },
    {
      "inputs": [
        {
          "internalType": "address",
          "name": "nftContract",
          "type": "address"
        },
        {
          "internalType": "uint256",
          "name": "tokenId",
          "type": "uint256"
        }
      ],
      "name": "AlreadyListed",
      "type": "error"
    },
    {
      "inputs": [],
      "name": "CannotBuyOwnItem",
      "type": "error"
    },
    {
      "inputs": [],
      "name": "EmergencyWithdrawFailed",
      "type": "error"
    },
    {
      "inputs": [],
      "name": "EnforcedPause",
      "type": "error"
    },
    {
      "inputs": [],
      "name": "ExpectedPause",
      "type": "error"
    },
    {
      "inputs": [],
      "name": "FeeTooHigh",
      "type": "error"
    },
    {
      "inputs": [],
      "name": "NoProceeds",
      "type": "error"
    },
    {
      "inputs": [],
      "name": "NotApprovedForMarketplace",
      "type": "error"
    },
    {
      "inputs": [
        {
          "internalType": "address",
          "name": "nftContract",
          "type": "address"
        },
        {
          "internalType": "uint256",
          "name": "tokenId",
          "type": "uint256"
        }
      ],
      "name": "NotListed",
      "type": "error"
    },
    {
      "inputs": [],
      "name": "NotOwner",
      "type": "error"
    },
    {
      "inputs": [
        {
          "internalType": "address",
          "name": "owner",
          "type": "address"
        }
      ],
      "name": "OwnableInvalidOwner",
      "type": "error"
    },
    {
      "inputs": [
        {
          "internalType": "address",
          "name": "account",
          "type": "address"
        }
      ],
      "name": "OwnableUnauthorizedAccount",
      "type": "error"
    },
    {
      "inputs": [],
      "name": "PriceMustBeAboveZero",
      "type": "error"
    },
    {
      "inputs": [
        {
          "internalType": "uint256",
          "name": "limit",
          "type": "uint256"
        },
        {
          "internalType": "uint256",
          "name": "sent",
          "type": "uint256"
        }
      ],
      "name": "PriceNotMet",
      "type": "error"
    },
    {
      "inputs": [],
      "name": "ReentrancyGuardReentrantCall",
      "type": "error"
    },
    {
      "anonymous": false,
      "inputs": [
        {
          "indexed": true,
          "internalType": "address",
          "name": "nftContract",
          "type": "address"
        },
        {
          "indexed": true,
          "internalType": "uint256",
          "name": "tokenId",
          "type": "uint256"
        },
        {
          "indexed": true,
          "internalType": "address",
          "name": "to",
          "type": "address"
        }
      ],
      "name": "EmergencyWithdrawn",
      "type": "event"
    },
    {
      "anonymous": false,
      "inputs": [
        {
          "indexed": true,
          "internalType": "address",
          "name": "nftContract",
          "type": "address"
        },
        {
          "indexed": true,
          "internalType": "uint256",
          "name": "tokenId",
          "type": "uint256"
        },
        {
          "indexed": false,
          "internalType": "uint256",
          "name": "price",
          "type": "uint256"
        },
        {
          "indexed": false,
          "internalType": "address",
          "name": "buyer",
          "type": "address"
        }
      ],
      "name": "ItemBought",
      "type": "event"
    },
    {
      "anonymous": false,
      "inputs": [
        {
          "indexed": true,
          "internalType": "address",
          "name": "nftContract",
          "type": "address"
        },
        {
          "indexed": true,
          "internalType": "uint256",
          "name": "tokenId",
          "type": "uint256"
        },
        {
          "indexed": true,
          "internalType": "address",
          "name": "seller",
          "type": "address"
        }
      ],
      "name": "ItemCancelled",
      "type": "event"
    },
    {
      "anonymous": false,
      "inputs": [
        {
          "indexed": true,
          "internalType": "address",
          "name": "nftContract",
          "type": "address"
        },
        {
          "indexed": true,
          "internalType": "uint256",
          "name": "tokenId",
          "type": "uint256"
        },
        {
          "indexed": false,
          "internalType": "uint256",
          "name": "price",
          "type": "uint256"
        },
        {
          "indexed": false,
          "internalType": "address",
          "name": "seller",
          "type": "address"
        }
      ],
      "name": "ItemListed",
      "type": "event"
    },
    {
      "anonymous": false,
      "inputs": [
        {
          "indexed": true,
          "internalType": "address",
          "name": "previousOwner",
          "type": "address"
        },
        {
          "indexed": true,
          "internalType": "address",
          "name": "newOwner",
          "type": "address"
        }
      ],
      "name": "OwnershipTransferred",
      "type": "event"
    },
    {
      "anonymous": false,
      "inputs": [
        {
          "indexed": false,
          "internalType": "address",
          "name": "account",
          "type": "address"
        }
      ],
      "name": "Paused",
      "type": "event"
    },
    {
      "anonymous": false,
      "inputs": [
        {
          "indexed": true,
          "internalType": "address",
          "name": "beneficiary",
          "type": "address"
        },
        {
          "indexed": false,
          "internalType": "uint256",
          "name": "amount",
          "type": "uint256"
        }
      ],
      "name": "ProceedsWithdrawn",
      "type": "event"
    },
    {
      "anonymous": false,
      "inputs": [
        {
          "indexed": false,
          "internalType": "address",
          "name": "account",
          "type": "address"
        }
      ],
      "name": "Unpaused",
      "type": "event"
    },
    {
      "inputs": [
        {
          "internalType": "address",
          "name": "_nftContract",
          "type": "address"
        },
        {
          "internalType": "uint256",
          "name": "_tokenId",
          "type": "uint256"
        },
        {
          "internalType": "address",
          "name": "_to",
          "type": "address"
        }
      ],
      "name": "EmergencyWithdrawNft",
      "outputs": [],
      "stateMutability": "nonpayable",
      "type": "function"
    },
    {
      "inputs": [
        {
          "internalType": "address",
          "name": "_nftContract",
          "type": "address"
        },
        {
          "internalType": "uint256",
          "name": "_tokenId",
          "type": "uint256"
        }
      ],
      "name": "buyItem",
      "outputs": [],
      "stateMutability": "payable",
      "type": "function"
    },
    {
      "inputs": [
        {
          "internalType": "address",
          "name": "_nftContract",
          "type": "address"
        },
        {
          "internalType": "uint256",
          "name": "_tokenId",
          "type": "uint256"
        }
      ],
      "name": "cancelListing",
      "outputs": [],
      "stateMutability": "nonpayable",
      "type": "function"
    },
    {
      "inputs": [],
      "name": "feePercent",
      "outputs": [
        {
          "internalType": "uint256",
          "name": "",
          "type": "uint256"
        }
      ],
      "stateMutability": "view",
      "type": "function"
    },
    {
      "inputs": [
        {
          "internalType": "address",
          "name": "_nftContract",
          "type": "address"
        },
        {
          "internalType": "uint256",
          "name": "_tokenId",
          "type": "uint256"
        },
        {
          "internalType": "uint256",
          "name": "_price",
          "type": "uint256"
        }
      ],
      "name": "listItem",
      "outputs": [],
      "stateMutability": "nonpayable",
      "type": "function"
    },
    {
      "inputs": [
        {
          "internalType": "address",
          "name": "",
          "type": "address"
        },
        {
          "internalType": "uint256",
          "name": "",
          "type": "uint256"
        }
      ],
      "name": "listings",
      "outputs": [
        {
          "internalType": "uint256",
          "name": "price",
          "type": "uint256"
        },
        {
          "internalType": "address",
          "name": "seller",
          "type": "address"
        }
      ],
      "stateMutability": "view",
      "type": "function"
    },
    {
      "inputs": [],
      "name": "owner",
      "outputs": [
        {
          "internalType": "address",
          "name": "",
          "type": "address"
        }
      ],
      "stateMutability": "view",
      "type": "function"
    },
    {
      "inputs": [],
      "name": "pause",
      "outputs": [],
      "stateMutability": "nonpayable",
      "type": "function"
    },
    {
      "inputs": [],
      "name": "paused",
      "outputs": [
        {
          "internalType": "bool",
          "name": "",
          "type": "bool"
        }
      ],
      "stateMutability": "view",
      "type": "function"
    },
    {
      "inputs": [
        {
          "internalType": "address",
          "name": "",
          "type": "address"
        }
      ],
      "name": "proceeds",
      "outputs": [
        {
          "internalType": "uint256",
          "name": "",
          "type": "uint256"
        }
      ],
      "stateMutability": "view",
      "type": "function"
    },
    {
      "inputs": [],
      "name": "renounceOwnership",
      "outputs": [],
      "stateMutability": "nonpayable",
      "type": "function"
    },
    {
      "inputs": [
        {
          "internalType": "address",
          "name": "newOwner",
          "type": "address"
        }
      ],
      "name": "transferOwnership",
      "outputs": [],
      "stateMutability": "nonpayable",
      "type": "function"
    },
    {
      "inputs": [],
      "name": "unpause",
      "outputs": [],
      "stateMutability": "nonpayable",
      "type": "function"
    },
    {
      "inputs": [
        {
          "internalType": "uint256",
          "name": "_newFeePercent",
          "type": "uint256"
        }
      ],
      "name": "updateFeePercent",
      "outputs": [],
      "stateMutability": "nonpayable",
      "type": "function"
    },
    {
      "inputs": [
        {
          "internalType": "address",
          "name": "_nftContract",
          "type": "address"
        },
        {
          "internalType": "uint256",
          "name": "_tokenId",
          "type": "uint256"
        },
        {
          "internalType": "uint256",
          "name": "_newPrice",
          "type": "uint256"
        }
      ],
      "name": "updateListing",
      "outputs": [],
      "stateMutability": "nonpayable",
      "type": "function"
    },
    {
      "inputs": [],
      "name": "withdrawProceeds",
      "outputs": [],
      "stateMutability": "nonpayable",
      "type": "function"
    }
  ],
  "bytecode": "0x608060405234801561001057600080fd5b506040516121e73803806121e783398181016040528101906100329190610206565b336001600081905550600073ffffffffffffffffffffffffffffffffffffffff168173ffffffffffffffffffffffffffffffffffffffff16036100ad5760006040517f1e4fbdf70000000000000000000000000000000000000000000000000000000081526004016100a49190610274565b60405180910390fd5b6100bc8161010560201b60201c565b5060148111156100f8576040517fcd4e616700000000000000000000000000000000000000000000000000000000815260040160405180910390fd5b806004819055505061028f565b6000600160009054906101000a900473ffffffffffffffffffffffffffffffffffffffff16905081600160006101000a81548173ffffffffffffffffffffffffffffffffffffffff021916908373ffffffffffffffffffffffffffffffffffffffff1602179055508173ffffffffffffffffffffffffffffffffffffffff168173ffffffffffffffffffffffffffffffffffffffff167f8be0079c531659141344cd1fd0a4f28419497f9722a3daafe3b4186f6b6457e060405160405180910390a35050565b600080fd5b6000819050919050565b6101e3816101d0565b81146101ee57600080fd5b50565b600081519050610200816101da565b92915050565b60006020828403121561021c5761021b6101cb565b5b600061022a848285016101f1565b91505092915050565b600073ffffffffffffffffffffffffffffffffffffffff82169050919050565b600061025e82610233565b9050919050565b61026e81610253565b82525050565b60006020820190506102896000830184610265565b92915050565b611f498061029e6000396000f3fe6080604052600436106100f25760003560e01c806389bfd38f1161008a578063b2ddee0611610059578063b2ddee06146102bd578063f05c5fed146102e6578063f2fde38b1461030f578063f772adf114610338576100f2565b806389bfd38f146102365780638da5cb5b1461025f5780639038e6931461028a5780639f37092a146102a1576100f2565b80635c975abb116100c65780635c975abb146101b2578063715018a6146101dd5780637fd6f15c146101f45780638456cb591461021f576100f2565b806207df30146100f75780630b6506f71461013557806335adde541461015e5780633f4ba83a1461019b575b600080fd5b34801561010357600080fd5b5061011e6004803603810190610119919061196b565b610361565b60405161012c9291906119c9565b60405180910390f35b34801561014157600080fd5b5061015c600480360381019061015791906119f2565b6103b2565b005b34801561016a57600080fd5b5061018560048036038101906101809190611a45565b61054a565b6040516101929190611a72565b60405180910390f35b3480156101a757600080fd5b506101b0610562565b005b3480156101be57600080fd5b506101c7610574565b6040516101d49190611aa8565b60405180910390f35b3480156101e957600080fd5b506101f261058b565b005b34801561020057600080fd5b5061020961059f565b6040516102169190611a72565b60405180910390f35b34801561022b57600080fd5b506102346105a5565b005b34801561024257600080fd5b5061025d60048036038101906102589190611ac3565b6105b7565b005b34801561026b57600080fd5b506102746109ce565b6040516102819190611b16565b60405180910390f35b34801561029657600080fd5b5061029f6109f8565b005b6102bb60048036038101906102b6919061196b565b610bd1565b005b3480156102c957600080fd5b506102e460048036038101906102df919061196b565b6110b1565b005b3480156102f257600080fd5b5061030d60048036038101906103089190611b31565b611385565b005b34801561031b57600080fd5b5061033660048036038101906103319190611a45565b6113d2565b005b34801561034457600080fd5b5061035f600480360381019061035a9190611ac3565b611458565b005b6002602052816000526040600020602052806000526040600020600091509150508060000154908060010160009054906101000a900473ffffffffffffffffffffffffffffffffffffffff16905082565b6103ba6115e7565b6103c261166e565b600260008473ffffffffffffffffffffffffffffffffffffffff1673ffffffffffffffffffffffffffffffffffffffff16815260200190815260200160002060008381526020019081526020016000206000808201600090556001820160006101000a81549073ffffffffffffffffffffffffffffffffffffffff021916905550508273ffffffffffffffffffffffffffffffffffffffff166323b872dd3083856040518463ffffffff1660e01b815260040161048193929190611b5e565b600060405180830381600087803b15801561049b57600080fd5b505af19250505080156104ac575060015b6104e2576040517f801d5b7d00000000000000000000000000000000000000000000000000000000815260040160405180910390fd5b8073ffffffffffffffffffffffffffffffffffffffff16828473ffffffffffffffffffffffffffffffffffffffff167f5df18565c5bc04aa5c8a0d9d2db510b133941a1372be5a443ea4ec5f2f04f29360405160405180910390a46105456116b4565b505050565b60036020528060005260406000206000915090505481565b61056a6115e7565b6105726116be565b565b6000600160149054906101000a900460ff16905090565b6105936115e7565b61059d6000611721565b565b60045481565b6105ad6115e7565b6105b56117e7565b565b6105bf61166e565b6105c7611849565b60008103610601576040517fe1abbfc500000000000000000000000000000000000000000000000000000000815260040160405180910390fd5b6000600260008573ffffffffffffffffffffffffffffffffffffffff1673ffffffffffffffffffffffffffffffffffffffff168152602001908152602001600020600084815260200190815260200160002060000154111561069c5782826040517f4a5568d5000000000000000000000000000000000000000000000000000000008152600401610693929190611b95565b60405180910390fd5b60008390503373ffffffffffffffffffffffffffffffffffffffff168173ffffffffffffffffffffffffffffffffffffffff16636352211e856040518263ffffffff1660e01b81526004016106f19190611a72565b602060405180830381865afa15801561070e573d6000803e3d6000fd5b505050506040513d601f19601f820116820180604052508101906107329190611bd3565b73ffffffffffffffffffffffffffffffffffffffff161461077f576040517f30cd747100000000000000000000000000000000000000000000000000000000815260040160405180910390fd5b8073ffffffffffffffffffffffffffffffffffffffff1663e985e9c533306040518363ffffffff1660e01b81526004016107ba929190611c00565b602060405180830381865afa1580156107d7573d6000803e3d6000fd5b505050506040513d601f19601f820116820180604052508101906107fb9190611c55565b610831576040517f4be3a2c500000000000000000000000000000000000000000000000000000000815260040160405180910390fd5b60405180604001604052808381526020013373ffffffffffffffffffffffffffffffffffffffff16815250600260008673ffffffffffffffffffffffffffffffffffffffff1673ffffffffffffffffffffffffffffffffffffffff16815260200190815260200160002060008581526020019081526020016000206000820151816000015560208201518160010160006101000a81548173ffffffffffffffffffffffffffffffffffffffff021916908373ffffffffffffffffffffffffffffffffffffffff160217905550905050828473ffffffffffffffffffffffffffffffffffffffff167ff72a1a7f0543c16546019eb0a601ab3e64090c3eec1a7f6479355bf2e9f49c4984336040516109499291906119c9565b60405180910390a38073ffffffffffffffffffffffffffffffffffffffff166323b872dd3330866040518463ffffffff1660e01b815260040161098e93929190611b5e565b600060405180830381600087803b1580156109a857600080fd5b505af11580156109bc573d6000803e3d6000fd5b50505050506109c96116b4565b505050565b6000600160009054906101000a900473ffffffffffffffffffffffffffffffffffffffff16905090565b610a0061166e565b610a08611849565b6000600360003373ffffffffffffffffffffffffffffffffffffffff1673ffffffffffffffffffffffffffffffffffffffff16815260200190815260200160002054905060008103610a86576040517fc4d8fa8700000000000000000000000000000000000000000000000000000000815260040160405180910390fd5b6000600360003373ffffffffffffffffffffffffffffffffffffffff1673ffffffffffffffffffffffffffffffffffffffff1681526020019081526020016000208190555060003373ffffffffffffffffffffffffffffffffffffffff1682604051610af190611cb3565b60006040518083038185875af1925050503d8060008114610b2e576040519150601f19603f3d011682016040523d82523d6000602084013e610b33565b606091505b5050905080610b77576040517f08c379a0000000000000000000000000000000000000000000000000000000008152600401610b6e90611d25565b60405180910390fd5b3373ffffffffffffffffffffffffffffffffffffffff167f0f2fb75cc1977a496e94837f859e957f68e26e70dc1b75d9945ee92ae57969ba83604051610bbd9190611a72565b60405180910390a25050610bcf6116b4565b565b610bd961166e565b610be1611849565b6000600260008473ffffffffffffffffffffffffffffffffffffffff1673ffffffffffffffffffffffffffffffffffffffff1681526020019081526020016000206000838152602001908152602001600020604051806040016040529081600082015481526020016001820160009054906101000a900473ffffffffffffffffffffffffffffffffffffffff1673ffffffffffffffffffffffffffffffffffffffff1673ffffffffffffffffffffffffffffffffffffffff168152505090506000816000015103610ceb5782826040517f6831488c000000000000000000000000000000000000000000000000000000008152600401610ce2929190611b95565b60405180910390fd5b8060000151341015610d3a578060000151346040517fbc03bccd000000000000000000000000000000000000000000000000000000008152600401610d31929190611d45565b60405180910390fd5b3373ffffffffffffffffffffffffffffffffffffffff16816020015173ffffffffffffffffffffffffffffffffffffffff1603610da3576040517fa48b6fc000000000000000000000000000000000000000000000000000000000815260040160405180910390fd5b6000816000015134610db59190611d9d565b9050600260008573ffffffffffffffffffffffffffffffffffffffff1673ffffffffffffffffffffffffffffffffffffffff16815260200190815260200160002060008481526020019081526020016000206000808201600090556001820160006101000a81549073ffffffffffffffffffffffffffffffffffffffff02191690555050600060646004548460000151610e4f9190611dd1565b610e599190611e42565b90506000818460000151610e6d9190611d9d565b90508060036000866020015173ffffffffffffffffffffffffffffffffffffffff1673ffffffffffffffffffffffffffffffffffffffff1681526020019081526020016000206000828254610ec29190611e73565b925050819055508160036000610ed66109ce565b73ffffffffffffffffffffffffffffffffffffffff1673ffffffffffffffffffffffffffffffffffffffff1681526020019081526020016000206000828254610f1f9190611e73565b92505081905550848673ffffffffffffffffffffffffffffffffffffffff167fb03f92a114afd6f0d9b0dc2b572bd8abbd11540e53119b0c574034469bd50d24866000015133604051610f739291906119c9565b60405180910390a38573ffffffffffffffffffffffffffffffffffffffff166323b872dd3033886040518463ffffffff1660e01b8152600401610fb893929190611b5e565b600060405180830381600087803b158015610fd257600080fd5b505af1158015610fe6573d6000803e3d6000fd5b5050505060008311156110a15760003373ffffffffffffffffffffffffffffffffffffffff168460405161101990611cb3565b60006040518083038185875af1925050503d8060008114611056576040519150601f19603f3d011682016040523d82523d6000602084013e61105b565b606091505b505090508061109f576040517f08c379a000000000000000000000000000000000000000000000000000000000815260040161109690611ef3565b60405180910390fd5b505b505050506110ad6116b4565b5050565b6110b961166e565b6000600260008473ffffffffffffffffffffffffffffffffffffffff1673ffffffffffffffffffffffffffffffffffffffff1681526020019081526020016000206000838152602001908152602001600020604051806040016040529081600082015481526020016001820160009054906101000a900473ffffffffffffffffffffffffffffffffffffffff1673ffffffffffffffffffffffffffffffffffffffff1673ffffffffffffffffffffffffffffffffffffffff1681525050905060008160000151036111c35782826040517f6831488c0000000000000000000000000000000000000000000000000000000081526004016111ba929190611b95565b60405180910390fd5b3373ffffffffffffffffffffffffffffffffffffffff16816020015173ffffffffffffffffffffffffffffffffffffffff161461122c576040517f30cd747100000000000000000000000000000000000000000000000000000000815260040160405180910390fd5b600260008473ffffffffffffffffffffffffffffffffffffffff1673ffffffffffffffffffffffffffffffffffffffff16815260200190815260200160002060008381526020019081526020016000206000808201600090556001820160006101000a81549073ffffffffffffffffffffffffffffffffffffffff021916905550503373ffffffffffffffffffffffffffffffffffffffff16828473ffffffffffffffffffffffffffffffffffffffff167fae853d44a3ea3a7fbfb13f965e42d1b6be86290588f4f7e8e496111152e8ecb460405160405180910390a48273ffffffffffffffffffffffffffffffffffffffff166323b872dd3033856040518463ffffffff1660e01b815260040161134693929190611b5e565b600060405180830381600087803b15801561136057600080fd5b505af1158015611374573d6000803e3d6000fd5b50505050506113816116b4565b5050565b61138d6115e7565b60148111156113c8576040517fcd4e616700000000000000000000000000000000000000000000000000000000815260040160405180910390fd5b8060048190555050565b6113da6115e7565b600073ffffffffffffffffffffffffffffffffffffffff168173ffffffffffffffffffffffffffffffffffffffff160361144c5760006040517f1e4fbdf70000000000000000000000000000000000000000000000000000000081526004016114439190611b16565b60405180910390fd5b61145581611721565b50565b61146061166e565b611468611849565b6000600260008573ffffffffffffffffffffffffffffffffffffffff1673ffffffffffffffffffffffffffffffffffffffff168152602001908152602001600020600084815260200190815260200160002090503373ffffffffffffffffffffffffffffffffffffffff168160010160009054906101000a900473ffffffffffffffffffffffffffffffffffffffff1673ffffffffffffffffffffffffffffffffffffffff1614611545576040517f30cd747100000000000000000000000000000000000000000000000000000000815260040160405180910390fd5b6000820361157f576040517fe1abbfc500000000000000000000000000000000000000000000000000000000815260040160405180910390fd5b818160000181905550828473ffffffffffffffffffffffffffffffffffffffff167ff72a1a7f0543c16546019eb0a601ab3e64090c3eec1a7f6479355bf2e9f49c4984336040516115d19291906119c9565b60405180910390a3506115e26116b4565b505050565b6115ef61188a565b73ffffffffffffffffffffffffffffffffffffffff1661160d6109ce565b73ffffffffffffffffffffffffffffffffffffffff161461166c5761163061188a565b6040517f118cdaa70000000000000000000000000000000000000000000000000000000081526004016116639190611b16565b60405180910390fd5b565b6002600054036116aa576040517f3ee5aeb500000000000000000000000000000000000000000000000000000000815260040160405180910390fd5b6002600081905550565b6001600081905550565b6116c6611892565b6000600160146101000a81548160ff0219169083151502179055507f5db9ee0a495bf2e6ff9c91a7834c1ba4fdd244a5e8aa4e537bd38aeae4b073aa61170a61188a565b6040516117179190611b16565b60405180910390a1565b6000600160009054906101000a900473ffffffffffffffffffffffffffffffffffffffff16905081600160006101000a81548173ffffffffffffffffffffffffffffffffffffffff021916908373ffffffffffffffffffffffffffffffffffffffff1602179055508173ffffffffffffffffffffffffffffffffffffffff168173ffffffffffffffffffffffffffffffffffffffff167f8be0079c531659141344cd1fd0a4f28419497f9722a3daafe3b4186f6b6457e060405160405180910390a35050565b6117ef611849565b60018060146101000a81548160ff0219169083151502179055507f62e78cea01bee320cd4e420270b5ea74000d11b0c9f74754ebdbfc544b05a25861183261188a565b60405161183f9190611b16565b60405180910390a1565b611851610574565b15611888576040517fd93c066500000000000000000000000000000000000000000000000000000000815260040160405180910390fd5b565b600033905090565b61189a610574565b6118d0576040517f8dfc202b00000000000000000000000000000000000000000000000000000000815260040160405180910390fd5b565b600080fd5b600073ffffffffffffffffffffffffffffffffffffffff82169050919050565b6000611902826118d7565b9050919050565b611912816118f7565b811461191d57600080fd5b50565b60008135905061192f81611909565b92915050565b6000819050919050565b61194881611935565b811461195357600080fd5b50565b6000813590506119658161193f565b92915050565b60008060408385031215611982576119816118d2565b5b600061199085828601611920565b92505060206119a185828601611956565b9150509250929050565b6119b481611935565b82525050565b6119c3816118f7565b82525050565b60006040820190506119de60008301856119ab565b6119eb60208301846119ba565b9392505050565b600080600060608486031215611a0b57611a0a6118d2565b5b6000611a1986828701611920565b9350506020611a2a86828701611956565b9250506040611a3b86828701611920565b9150509250925092565b600060208284031215611a5b57611a5a6118d2565b5b6000611a6984828501611920565b91505092915050565b6000602082019050611a8760008301846119ab565b92915050565b60008115159050919050565b611aa281611a8d565b82525050565b6000602082019050611abd6000830184611a99565b92915050565b600080600060608486031215611adc57611adb6118d2565b5b6000611aea86828701611920565b9350506020611afb86828701611956565b9250506040611b0c86828701611956565b9150509250925092565b6000602082019050611b2b60008301846119ba565b92915050565b600060208284031215611b4757611b466118d2565b5b6000611b5584828501611956565b91505092915050565b6000606082019050611b7360008301866119ba565b611b8060208301856119ba565b611b8d60408301846119ab565b949350505050565b6000604082019050611baa60008301856119ba565b611bb760208301846119ab565b9392505050565b600081519050611bcd81611909565b92915050565b600060208284031215611be957611be86118d2565b5b6000611bf784828501611bbe565b91505092915050565b6000604082019050611c1560008301856119ba565b611c2260208301846119ba565b9392505050565b611c3281611a8d565b8114611c3d57600080fd5b50565b600081519050611c4f81611c29565b92915050565b600060208284031215611c6b57611c6a6118d2565b5b6000611c7984828501611c40565b91505092915050565b600081905092915050565b50565b6000611c9d600083611c82565b9150611ca882611c8d565b600082019050919050565b6000611cbe82611c90565b9150819050919050565b600082825260208201905092915050565b7f5472616e73666572206661696c65640000000000000000000000000000000000600082015250565b6000611d0f600f83611cc8565b9150611d1a82611cd9565b602082019050919050565b60006020820190508181036000830152611d3e81611d02565b9050919050565b6000604082019050611d5a60008301856119ab565b611d6760208301846119ab565b9392505050565b7f4e487b7100000000000000000000000000000000000000000000000000000000600052601160045260246000fd5b6000611da882611935565b9150611db383611935565b9250828203905081811115611dcb57611dca611d6e565b5b92915050565b6000611ddc82611935565b9150611de783611935565b9250828202611df581611935565b91508282048414831517611e0c57611e0b611d6e565b5b5092915050565b7f4e487b7100000000000000000000000000000000000000000000000000000000600052601260045260246000fd5b6000611e4d82611935565b9150611e5883611935565b925082611e6857611e67611e13565b5b828204905092915050565b6000611e7e82611935565b9150611e8983611935565b9250828201905080821115611ea157611ea0611d6e565b5b92915050565b7f526566756e64206661696c656400000000000000000000000000000000000000600082015250565b6000611edd600d83611cc8565b9150611ee882611ea7565b602082019050919050565b60006020820190508181036000830152611f0c81611ed0565b905091905056fea2646970667358221220f814e78e7ad3c2813c341f463dde7c8e9cfe89a8aa89578352990d0b5d7d765b64736f6c634300081c0033",
  "linkReferences": {},
  "deployedLinkReferences": {}
}