{
  "_format": "hh-sol-artifact-1",
  "contractName": "NFTMarketplace",
  "sourceName": "contracts/NFTMarketplace.sol",
  "abi": [
    {
      "inputs": [
        {
          "internalType": "uint256",
          "name": "_feePercent",
          "type": "uint256"
        }
      ],
      "stateMutability": "nonpayable",
      "type": "constructor"
    },
    {
      "inputs": [
        {
          "internalType": "address",
          "name": "nftContract",
          "type": "address"
        },
        {
          "internalType": "uint256",
          "name": "tokenId",
          "type": "uint256"
        }
      ],
      "name": "AlreadyListed",
      "type": "error"
    },
    {
      "inputs": [],
      "name": "CannotBuyOwnItem",
      "type": "error"
    },
    {
      "inputs": [],
      "name": "EmergencyWithdrawFailed",
      "type": "error"
    },
    {
      "inputs": [],
      "name": "EnforcedPause",
      "type": "error"
    },
    {
      "inputs": [],
      "name": "ExpectedPause",
      "type": "error"
    },
    {
      "inputs": [],
      "name": "FeeTooHigh",
      "type": "error"
    },
    {
      "inputs": [],
      "name": "NoProceeds",
      "type": "error"
    },
    {
      "inputs": [],
      "name": "NotApprovedForMarketplace",
      "type": "error"
    },
    {
      "inputs": [
        {
          "internalType": "address",
          "name": "nftContract",
          "type": "address"
        },
        {
          "internalType": "uint256",
          "name": "tokenId",
          "type": "uint256"
        }
      ],
      "name": "NotListed",
      "type": "error"
    },
    {
      "inputs": [],
      "name": "NotOwner",
      "type": "error"
    },
    {
      "inputs": [
        {
          "internalType": "address",
          "name": "owner",
          "type": "address"
        }
      ],
      "name": "OwnableInvalidOwner",
      "type": "error"
    },
    {
      "inputs": [
        {
          "internalType": "address",
          "name": "account",
          "type": "address"
        }
      ],
      "name": "OwnableUnauthorizedAccount",
      "type": "error"
    },
    {
      "inputs": [],
      "name": "PriceMustBeAboveZero",
      "type": "error"
    },
    {
      "inputs": [
        {
          "internalType": "uint256",
          "name": "limit",
          "type": "uint256"
        },
        {
          "internalType": "uint256",
          "name": "sent",
          "type": "uint256"
        }
      ],
      "name": "PriceNotMet",
      "type": "error"
    },
    {
      "inputs": [],
      "name": "ReentrancyGuardReentrantCall",
      "type": "error"
    },
    {
      "anonymous": false,
      "inputs": [
        {
          "indexed": true,
          "internalType": "address",
          "name": "nftContract",
          "type": "address"
        },
        {
          "indexed": true,
          "internalType": "uint256",
          "name": "tokenId",
          "type": "uint256"
        },
        {
          "indexed": true,
          "internalType": "address",
          "name": "to",
          "type": "address"
        }
      ],
      "name": "EmergencyWithdrawn",
      "type": "event"
    },
    {
      "anonymous": false,
      "inputs": [
        {
          "indexed": true,
          "internalType": "address",
          "name": "nftContract",
          "type": "address"
        },
        {
          "indexed": true,
          "internalType": "uint256",
          "name": "tokenId",
          "type": "uint256"
        },
        {
          "indexed": false,
          "internalType": "uint256",
          "name": "price",
          "type": "uint256"
        },
        {
          "indexed": false,
          "internalType": "address",
          "name": "buyer",
          "type": "address"
        }
      ],
      "name": "ItemBought",
      "type": "event"
    },
    {
      "anonymous": false,
      "inputs": [
        {
          "indexed": true,
          "internalType": "address",
          "name": "nftContract",
          "type": "address"
        },
        {
          "indexed": true,
          "internalType": "uint256",
          "name": "tokenId",
          "type": "uint256"
        },
        {
          "indexed": true,
          "internalType": "address",
          "name": "seller",
          "type": "address"
        }
      ],
      "name": "ItemCancelled",
      "type": "event"
    },
    {
      "anonymous": false,
      "inputs": [
        {
          "indexed": true,
          "internalType": "address",
          "name": "nftContract",
          "type": "address"
        },
        {
          "indexed": true,
          "internalType": "uint256",
          "name": "tokenId",
          "type": "uint256"
        },
        {
          "indexed": false,
          "internalType": "uint256",
          "name": "price",
          "type": "uint256"
        },
        {
          "indexed": false,
          "internalType": "address",
          "name": "seller",
          "type": "address"
        }
      ],
      "name": "ItemListed",
      "type": "event"
    },
    {
      "anonymous": false,
      "inputs": [
        {
          "indexed": true,
          "internalType": "address",
          "name": "previousOwner",
          "type": "address"
        },
        {
          "indexed": true,
          "internalType": "address",
          "name": "newOwner",
          "type": "address"
        }
      ],
      "name": "OwnershipTransferred",
      "type": "event"
    },
    {
      "anonymous": false,
      "inputs": [
        {
          "indexed": false,
          "internalType": "address",
          "name": "account",
          "type": "address"
        }
      ],
      "name": "Paused",
      "type": "event"
    },
    {
      "anonymous": false,
      "inputs": [
        {
          "indexed": true,
          "internalType": "address",
          "name": "beneficiary",
          "type": "address"
        },
        {
          "indexed": false,
          "internalType": "uint256",
          "name": "amount",
          "type": "uint256"
        }
      ],
      "name": "ProceedsWithdrawn",
      "type": "event"
    },
    {
      "anonymous": false,
      "inputs": [
        {
          "indexed": false,
          "internalType": "address",
          "name": "account",
          "type": "address"
        }
      ],
      "name": "Unpaused",
      "type": "event"
    },
    {
      "inputs": [
        {
          "internalType": "address",
          "name": "_nftContract",
          "type": "address"
        },
        {
          "internalType": "uint256",
          "name": "_tokenId",
          "type": "uint256"
        },
        {
          "internalType": "address",
          "name": "_to",
          "type": "address"
        }
      ],
      "name": "EmergencyWithdrawNft",
      "outputs": [],
      "stateMutability": "nonpayable",
      "type": "function"
    },
    {
      "inputs": [
        {
          "internalType": "address",
          "name": "_nftContract",
          "type": "address"
        },
        {
          "internalType": "uint256",
          "name": "_tokenId",
          "type": "uint256"
        }
      ],
      "name": "buyItem",
      "outputs": [],
      "stateMutability": "payable",
      "type": "function"
    },
    {
      "inputs": [
        {
          "internalType": "address",
          "name": "_nftContract",
          "type": "address"
        },
        {
          "internalType": "uint256",
          "name": "_tokenId",
          "type": "uint256"
        }
      ],
      "name": "cancelListing",
      "outputs": [],
      "stateMutability": "nonpayable",
      "type": "function"
    },
    {
      "inputs": [],
      "name": "feePercent",
      "outputs": [
        {
          "internalType": "uint256",
          "name": "",
          "type": "uint256"
        }
      ],
      "stateMutability": "view",
      "type": "function"
    },
    {
      "inputs": [
        {
          "internalType": "address",
          "name": "_nftContract",
          "type": "address"
        },
        {
          "internalType": "uint256",
          "name": "_tokenId",
          "type": "uint256"
        },
        {
          "internalType": "uint256",
          "name": "_price",
          "type": "uint256"
        }
      ],
      "name": "listItem",
      "outputs": [],
      "stateMutability": "nonpayable",
      "type": "function"
    },
    {
      "inputs": [
        {
          "internalType": "address",
          "name": "",
          "type": "address"
        },
        {
          "internalType": "uint256",
          "name": "",
          "type": "uint256"
        }
      ],
      "name": "listings",
      "outputs": [
        {
          "internalType": "uint256",
          "name": "price",
          "type": "uint256"
        },
        {
          "internalType": "address",
          "name": "seller",
          "type": "address"
        }
      ],
      "stateMutability": "view",
      "type": "function"
    },
    {
      "inputs": [],
      "name": "owner",
      "outputs": [
        {
          "internalType": "address",
          "name": "",
          "type": "address"
        }
      ],
      "stateMutability": "view",
      "type": "function"
    },
    {
      "inputs": [],
      "name": "pause",
      "outputs": [],
      "stateMutability": "nonpayable",
      "type": "function"
    },
    {
      "inputs": [],
      "name": "paused",
      "outputs": [
        {
          "internalType": "bool",
          "name": "",
          "type": "bool"
        }
      ],
      "stateMutability": "view",
      "type": "function"
    },
    {
      "inputs": [
        {
          "internalType": "address",
          "name": "",
          "type": "address"
        }
      ],
      "name": "proceeds",
      "outputs": [
        {
          "internalType": "uint256",
          "name": "",
          "type": "uint256"
        }
      ],
      "stateMutability": "view",
      "type": "function"
    },
    {
      "inputs": [],
      "name": "renounceOwnership",
      "outputs": [],
      "stateMutability": "nonpayable",
      "type": "function"
    },
    {
      "inputs": [
        {
          "internalType": "address",
          "name": "newOwner",
          "type": "address"
        }
      ],
      "name": "transferOwnership",
      "outputs": [],
      "stateMutability": "nonpayable",
      "type": "function"
    },
    {
      "inputs": [],
      "name": "unpause",
      "outputs": [],
      "stateMutability": "nonpayable",
      "type": "function"
    },
    {
      "inputs": [
        {
          "internalType": "uint256",
          "name": "_newFeePercent",
          "type": "uint256"
        }
      ],
      "name": "updateFeePercent",
      "outputs": [],
      "stateMutability": "nonpayable",
      "type": "function"
    },
    {
      "inputs": [
        {
          "internalType": "address",
          "name": "_nftContract",
          "type": "address"
        },
        {
          "internalType": "uint256",
          "name": "_tokenId",
          "type": "uint256"
        },
        {
          "internalType": "uint256",
          "name": "_newPrice",
          "type": "uint256"
        }
      ],
      "name": "updateListing",
      "outputs": [],
      "stateMutability": "nonpayable",
      "type": "function"
    },
    {
      "inputs": [],
      "name": "withdrawProceeds",
      "outputs": [],
      "stateMutability": "nonpayable",
      "type": "function"
    }
  ],
  "bytecode": "0x608060405234801561001057600080fd5b506040516112ad3803806112ad83398101604081905261002f916100e0565b6001600055338061005a57604051631e4fbdf760e01b81526000600482015260240160405180910390fd5b6100638161008e565b5060148111156100865760405163cd4e616760e01b815260040160405180910390fd5b6004556100f9565b600180546001600160a01b038381166001600160a01b0319831681179093556040519116919082907f8be0079c531659141344cd1fd0a4f28419497f9722a3daafe3b4186f6b6457e090600090a35050565b6000602082840312156100f257600080fd5b5051919050565b6111a5806101086000396000f3fe6080604052600436106100f25760003560e01c806389bfd38f1161008a578063b2ddee0611610059578063b2ddee06146102ad578063f05c5fed146102cd578063f2fde38b146102ed578063f772adf11461030d57600080fd5b806389bfd38f1461023d5780638da5cb5b1461025d5780639038e693146102855780639f37092a1461029a57600080fd5b80635c975abb116100c65780635c975abb146101d3578063715018a6146101fd5780637fd6f15c146102125780638456cb591461022857600080fd5b806207df30146100f75780630b6506f71461016157806335adde54146101835780633f4ba83a146101be575b600080fd5b34801561010357600080fd5b5061013f610112366004610fb1565b6002602090815260009283526040808420909152908252902080546001909101546001600160a01b031682565b604080519283526001600160a01b039091166020830152015b60405180910390f35b34801561016d57600080fd5b5061018161017c366004610fdd565b61032d565b005b34801561018f57600080fd5b506101b061019e36600461101f565b60036020526000908152604090205481565b604051908152602001610158565b3480156101ca57600080fd5b50610181610432565b3480156101df57600080fd5b50600154600160a01b900460ff166040519015158152602001610158565b34801561020957600080fd5b50610181610444565b34801561021e57600080fd5b506101b060045481565b34801561023457600080fd5b50610181610456565b34801561024957600080fd5b50610181610258366004611043565b610466565b34801561026957600080fd5b506001546040516001600160a01b039091168152602001610158565b34801561029157600080fd5b5061018161070b565b6101816102a8366004610fb1565b610826565b3480156102b957600080fd5b506101816102c8366004610fb1565b610b61565b3480156102d957600080fd5b506101816102e8366004611078565b610cca565b3480156102f957600080fd5b5061018161030836600461101f565b610cf9565b34801561031957600080fd5b50610181610328366004611043565b610d37565b610335610e06565b61033d610e33565b6001600160a01b0383166000818152600260209081526040808320868452909152808220918255600190910180546001600160a01b0319169055516323b872dd60e01b81526323b872dd9061039a90309085908790600401611091565b600060405180830381600087803b1580156103b457600080fd5b505af19250505080156103c5575060015b6103e25760405163801d5b7d60e01b815260040160405180910390fd5b806001600160a01b031682846001600160a01b03167f5df18565c5bc04aa5c8a0d9d2db510b133941a1372be5a443ea4ec5f2f04f29360405160405180910390a461042d6001600055565b505050565b61043a610e06565b610442610e5d565b565b61044c610e06565b6104426000610eb2565b61045e610e06565b610442610f04565b61046e610e33565b610476610f47565b806000036104975760405163e1abbfc560e01b815260040160405180910390fd5b6001600160a01b0383166000908152600260209081526040808320858452909152902054156104f057604051634a5568d560e01b81526001600160a01b0384166004820152602481018390526044015b60405180910390fd5b6040516331a9108f60e11b815260048101839052839033906001600160a01b03831690636352211e90602401602060405180830381865afa158015610539573d6000803e3d6000fd5b505050506040513d601f19601f8201168201806040525081019061055d91906110b5565b6001600160a01b031614610584576040516330cd747160e01b815260040160405180910390fd5b60405163e985e9c560e01b81523360048201523060248201526001600160a01b0382169063e985e9c590604401602060405180830381865afa1580156105ce573d6000803e3d6000fd5b505050506040513d601f19601f820116820180604052508101906105f291906110d2565b61060f57604051634be3a2c560e01b815260040160405180910390fd5b6040805180820182528381523360208083018281526001600160a01b038981166000818152600285528781208b82528552879020955186559151600190950180546001600160a01b031916959091169490941790935583518681529081019190915285927ff72a1a7f0543c16546019eb0a601ab3e64090c3eec1a7f6479355bf2e9f49c49910160405180910390a36040516323b872dd60e01b81526001600160a01b038216906323b872dd906106ce90339030908890600401611091565b600060405180830381600087803b1580156106e857600080fd5b505af11580156106fc573d6000803e3d6000fd5b505050505061042d6001600055565b610713610e33565b61071b610f47565b336000908152600360205260408120549081900361074c5760405163c4d8fa8760e01b815260040160405180910390fd5b336000818152600360205260408082208290555190919083908381818185875af1925050503d806000811461079d576040519150601f19603f3d011682016040523d82523d6000602084013e6107a2565b606091505b50509050806107e55760405162461bcd60e51b815260206004820152600f60248201526e151c985b9cd9995c8819985a5b1959608a1b60448201526064016104e7565b60405182815233907f0f2fb75cc1977a496e94837f859e957f68e26e70dc1b75d9945ee92ae57969ba9060200160405180910390a250506104426001600055565b61082e610e33565b610836610f47565b6001600160a01b038083166000908152600260209081526040808320858452825280832081518083019092528054808352600190910154909416918101919091529190036108a957604051631a0c522360e21b81526001600160a01b0384166004820152602481018390526044016104e7565b80513410156108d757805160405163bc03bccd60e01b815260048101919091523460248201526044016104e7565b336001600160a01b031681602001516001600160a01b03160361090d576040516302922dbf60e61b815260040160405180910390fd5b805160009061091c903461110a565b6001600160a01b0385166000908152600260209081526040808320878452909152812081815560010180546001600160a01b03191690556004548451929350909160649161096991611123565b610973919061113a565b90506000818460000151610987919061110a565b9050806003600086602001516001600160a01b03166001600160a01b0316815260200190815260200160002060008282546109c2919061115c565b90915550829050600360006109df6001546001600160a01b031690565b6001600160a01b03166001600160a01b031681526020019081526020016000206000828254610a0e919061115c565b909155505083516040805191825233602083015286916001600160a01b038916917fb03f92a114afd6f0d9b0dc2b572bd8abbd11540e53119b0c574034469bd50d24910160405180910390a36040516323b872dd60e01b81526001600160a01b038716906323b872dd90610a8a90309033908a90600401611091565b600060405180830381600087803b158015610aa457600080fd5b505af1158015610ab8573d6000803e3d6000fd5b505050506000831115610b4f57604051600090339085908381818185875af1925050503d8060008114610b07576040519150601f19603f3d011682016040523d82523d6000602084013e610b0c565b606091505b5050905080610b4d5760405162461bcd60e51b815260206004820152600d60248201526c1499599d5b990819985a5b1959609a1b60448201526064016104e7565b505b50505050610b5d6001600055565b5050565b610b69610e33565b6001600160a01b03808316600090815260026020908152604080832085845282528083208151808301909252805480835260019091015490941691810191909152919003610bdc57604051631a0c522360e21b81526001600160a01b0384166004820152602481018390526044016104e7565b60208101516001600160a01b03163314610c09576040516330cd747160e01b815260040160405180910390fd5b6001600160a01b038316600081815260026020908152604080832086845290915280822082815560010180546001600160a01b0319169055513392859290917fae853d44a3ea3a7fbfb13f965e42d1b6be86290588f4f7e8e496111152e8ecb49190a46040516323b872dd60e01b81526001600160a01b038416906323b872dd90610c9c90309033908790600401611091565b600060405180830381600087803b158015610cb657600080fd5b505af1158015610b4d573d6000803e3d6000fd5b610cd2610e06565b6014811115610cf45760405163cd4e616760e01b815260040160405180910390fd5b600455565b610d01610e06565b6001600160a01b038116610d2b57604051631e4fbdf760e01b8152600060048201526024016104e7565b610d3481610eb2565b50565b610d3f610e33565b610d47610f47565b6001600160a01b038084166000908152600260209081526040808320868452909152902060018101549091163314610d92576040516330cd747160e01b815260040160405180910390fd5b81600003610db35760405163e1abbfc560e01b815260040160405180910390fd5b8181556040805183815233602082015284916001600160a01b038716917ff72a1a7f0543c16546019eb0a601ab3e64090c3eec1a7f6479355bf2e9f49c49910160405180910390a35061042d6001600055565b6001546001600160a01b031633146104425760405163118cdaa760e01b81523360048201526024016104e7565b600260005403610e5657604051633ee5aeb560e01b815260040160405180910390fd5b6002600055565b610e65610f72565b6001805460ff60a01b191690557f5db9ee0a495bf2e6ff9c91a7834c1ba4fdd244a5e8aa4e537bd38aeae4b073aa335b6040516001600160a01b03909116815260200160405180910390a1565b600180546001600160a01b038381166001600160a01b0319831681179093556040519116919082907f8be0079c531659141344cd1fd0a4f28419497f9722a3daafe3b4186f6b6457e090600090a35050565b610f0c610f47565b6001805460ff60a01b1916600160a01b1790557f62e78cea01bee320cd4e420270b5ea74000d11b0c9f74754ebdbfc544b05a258610e953390565b600154600160a01b900460ff16156104425760405163d93c066560e01b815260040160405180910390fd5b600154600160a01b900460ff1661044257604051638dfc202b60e01b815260040160405180910390fd5b6001600160a01b0381168114610d3457600080fd5b60008060408385031215610fc457600080fd5b8235610fcf81610f9c565b946020939093013593505050565b600080600060608486031215610ff257600080fd5b8335610ffd81610f9c565b925060208401359150604084013561101481610f9c565b809150509250925092565b60006020828403121561103157600080fd5b813561103c81610f9c565b9392505050565b60008060006060848603121561105857600080fd5b833561106381610f9c565b95602085013595506040909401359392505050565b60006020828403121561108a57600080fd5b5035919050565b6001600160a01b039384168152919092166020820152604081019190915260600190565b6000602082840312156110c757600080fd5b815161103c81610f9c565b6000602082840312156110e457600080fd5b8151801515811461103c57600080fd5b634e487b7160e01b600052601160045260246000fd5b8181038181111561111d5761111d6110f4565b92915050565b808202811582820484141761111d5761111d6110f4565b60008261115757634e487b7160e01b600052601260045260246000fd5b500490565b8082018082111561111d5761111d6110f456fea2646970667358221220e164030c929588fa406232278ab9cf3fb94527c3e017b455aafdd80dc70dc15464736f6c634300081c0033",
  "linkReferences": {},
  "deployedLinkReferences": {}
}